:020000040800F2
:10000000E80800209D0100080F1100081D0D0008E0
:100010000D110008A9020008BD1200080000000030
:1000200000000000000000000000000015120008A1
:10003000AB020008000000001111000817120008B0
:10004000B7010008B7010008B7010008B7010008B0
:10005000B7010008B7010008B7010008B7010008A0
:10006000B7010008B7010008B7010008B701000890
:10007000B7010008B7010008B7010008B701000880
:10008000B7010008B7010008B7010008B701000870
:10009000B7010008B7010008B7010008B701000860
:1000A000B7010008B7010008B7010008B701000850
:1000B000B7010008B7010008B7010008B701000840
:1000C000B7010008B7010008B7010008B701000830
:1000D000B7010008B7010008B7010008B701000820
:1000E000B7010008B7010008B7010008B701000810
:1000F000B7010008B7010008B7010008B701000800
:10010000B7010008B7010008B7010008B7010008EF
:10011000B7010008B7010008B7010008B7010008DF
:10012000B7010008B7010008B7010008B7010008CF
:10013000B7010008B7010008B7010008B7010008BF
:10014000B7010008B7010008B7010008B7010008AF
:10015000B7010008B7010008B7010008B70100089F
:10016000B7010008B7010008B7010008B70100088F
:10017000B7010008B7010008B7010008000000003F
:10018000B7010008B7010008DFF80CD000F07AF8DA
:100190000048004729150008E80800200648804765
:1001A00006480047FEE7FEE7FEE7FEE7FEE7FEE75C
:1001B000FEE7FEE7FEE7FEE7A1120008890100085E
:1001C0002DE9F05F0546002092469B46884606468C
:1001D000814640241BE0284641464746224600F01F
:1001E00041F853465A46C01A914110D31146184659
:1001F000224600F028F82D1A67EB01084F462246E8
:100200000120002100F01FF817EB00094E41201ECD
:10021000A4F10104DFDC484631462A464346BDE8E6
:10022000F09FD2B201E000F8012B491EFBD27047CB
:100230000022F6E710B513460A4604461946FFF7B2
:10024000F0FF204610BD202A04DB203A00FA02F11C
:10025000002070479140C2F1200320FA03F31943B4
:1002600090407047202A04DB203A21FA02F0002156
:10027000704721FA02F3D040C2F1200291400843B6
:1002800019467047064C074D06E0E06840F0010350
:1002900094E8070098471034AC42F6D3FFF778FF94
:1002A00054DF080874DF0808FEE770477047000055
:1002B00070B5044600F0F0F80546601C02D0044812
:1002C0000078044400F0E8F8401BA042FAD370BD67
:1002D000000000202DE9F84F00224FF0010803250F
:1002E0004FF00F0E0B6808FA02F42340A3426ED1C0
:1002F0004E68012E05D0022E03D0112E01D0122EF1
:1003000012D186684FEA420C05FA0CF7BE43CF685B
:1003100007FA0CF7374387604668A6430C79C4F3A5
:100320000014944034434460C668570005FA07FC43
:100330008C6826EA0C06BC403443C4604C68022C2E
:1003400001D0122C13D1D40800EB8404A346D4F8B6
:10035000209054074FEAD46A0EFA0AF629EA0609F1
:100360000E6906FA0AF646EA0906CBF82060066826
:100370000C7926EA0C0604F00304BC403443046004
:100380004C68E40065D5364C266846F48046266005
:10039000246822F0030604F480440094314C344471
:1003A000A446D4F808489607370F0EFA07F6B44368
:1003B0002D4EB04201D1002624E02C4EB04201D196
:1003C00001261FE02A4EB04202D102261AE040E088
:1003D000284EB04201D1032614E0274EB04201D18D
:1003E00004260FE0254EB04201D105260AE0244E36
:1003F000B04201D1062605E0224EB04201D10726C7
:1004000000E00826BE402643CCF808681E4E34683B
:100410004F689C43FF0300D51C4334601A4C241DD5
:1004200026684F689E43BF0300D51E432660164EC4
:10043000083634684F689C43FF0200D51C43346083
:10044000114E0C3634684F689C43BF0200D51C43E4
:100450003460521C102AFFF445AFBDE8F88F00004D
:1004600044380240003001400000024000040240D5
:1004700000080240000C024000100240001402403C
:1004800000180240001C0240003C01400AB181619A
:1004900070470904FBE700000148806870470000CE
:1004A0000000002002488168027811448160704792
:1004B000000000200B4810B5016841F40071016094
:1004C000016841F480610160016841F4807101605C
:1004D000032000F061F8002000F006F800F024F896
:1004E000002010BD003C024070B50D4D04464FF495
:1004F0007A712878B1FBF0F00A490968B1FBF0F095
:1005000000F0F8FB48B9102C07D200222146501EFB
:1005100000F022F800206C6070BD012070BD00006A
:10052000000000200C0000200A4808B5016841F4D2
:1005300080410160006800F4804000900548001F81
:10054000016841F080510160006800F08050009027
:1005500008BD000044380240F0B40E4B1B680C4646
:10056000C3F30223C3F10705042D00D90425191D87
:10057000072901D2002300E0DB1E012606FA05F15F
:10058000491E214099409E40761E16403143F0BCE2
:1005900000F095BE0CED00E0064900F00702086887
:1005A0004FF6FF03184040EA0220034A1043086058
:1005B000704700000CED00E00000FA052DE9F0475F
:1005C0000E46050065D0DFF81481D8F80000F7B2B8
:1005D00000F00F00B04207D288F80070D8F8000091
:1005E00000F00F00B04254D128683D4C810712D56D
:1005F000400703D5206840F4E050206028780007C9
:1006000003D5206840F4604020602068A96820F08D
:10061000F000084320602878C0072DD03049686872
:100620000839012812D0022813D0032811D00968F4
:10063000890700292DDA216821F003010143216097
:10064000FFF72AFF814641F2883A0EE009688903E4
:10065000EFE709688901ECE7FFF71EFFA0EB09014E
:10066000514502D90320BDE8F0872068696800F091
:100670000C00B0EB810FEFD1D8F80010404601F02C
:100680000F01B14207D90770006800F00F00B042B7
:1006900001D00120E7E72878400705D52068E96800
:1006A00020F4E050084320602878000706D5206831
:1006B000296920F4604040EAC100206000F018F889
:1006C0002168084AC1F30311515CC840064908601B
:1006D00006480068FFF708FF0020C4E7003C02401E
:1006E0000838024042DF08080C0000200400002007
:1006F000154810B5006810F00C02144813D01449C6
:10070000042A0FD0082A0ED10F4C241F2268236818
:1007100002F03F025B0207D52068C0F38810A0FBFF
:10072000010106E0084610BD2168C1F38811A1FB54
:1007300000010023FFF744FD2168C1F30141491C7A
:100740004900B0FBF1F010BD083802400024F4006D
:1007500040787D012DE9F84F040076D02078DFF84D
:1007600038A3CE4DC00749D0DAF800105046C1F387
:100770008101012908D00068C0F3810002280AD154
:10078000281D0068400206D52868800336D56068B9
:100790000028E2D032E06068B0F5803F10D0B0F5BC
:1007A000A02F286810D020F480302860286820F41A
:1007B000802028606068A0B1FFF76EFE06460CE05E
:1007C000286840F48030F4E740F480202860F7E7A0
:1007D000FFF762FE801B642873D828688003F7D572
:1007E0000CE0FFF759FE064605E000BFFFF754FE98
:1007F000801B6428F0D828688003F7D42078DFF8BD
:10080000A08280074FF000093ED5DAF8001050466C
:1008100011F00C0F09D00068C0F3810002280BD141
:100820009D48001F0068400206D42868800715D53F
:10083000E068012809D111E0E068B8B10120C8F8EA
:100840000000FFF729FE064605E020E1FFF724FE41
:10085000801B0228C0D828688007F7D5286821693E
:1008600020F0F80040EAC10028600DE0C8F80090D0
:10087000FFF712FE064604E0FFF70EFE801B02287B
:100880001FD828688007F7D42078000722D5824E29
:10089000844861696C3671B101210160FFF7FCFD8C
:1008A000074604E0FFF7F8FDC01B022809D83068AE
:1008B0008007F7D50EE0C0F80090FFF7EDFD074682
:1008C00005E082E0FFF7E8FDC01B02287DD8306814
:1008D0008007F7D42078400768D5DFF8BCB100273F
:1008E0000BF1380BDBF80000C0000BD4DBF8001074
:1008F00041F08051CBF80010DBF80000012700F038
:1009000080500090684E3068C00510D4306840F4C4
:1009100080703060FFF7C0FD009005E0FFF7BCFD80
:100920000099401A022850D83068C005F6D55A4EB2
:10093000A068683601280FD00528306810D020F054
:1009400001003060306820F004003060A068B8B169
:10095000FFF7A2FD00900FE0306840F00100F4E7DF
:1009600040F004003060F7E7FFF796FD0099411A68
:1009700041F28830814266D830688007F4D50EE0B5
:10098000FFF78AFD009007E0FFF786FD0099411A06
:1009900041F28830814256D830688007F4D42FB1B4
:1009A000DBF8001021F08051CBF80010A069D0B323
:1009B000DAF800205146C2F38102022A4AD0022806
:1009C000484607D0C8F8600000E03CE0FFF764FD4F
:1009D00004463BE04746C8F86000FFF75DFD064669
:1009E00005E000BFFFF758FD801B02282BD82868C0
:1009F0008001F7D4D4E907010843A16A2B4A4908CA
:100A000002EB0141626A41EA8211084394F82C101A
:100A100040EA01612048001F016001203866FFF7AD
:100A20003BFD044605E034E0FFF736FD001B0228DD
:100A300009D828688001F7D52BE000BFFFF72CFD0F
:100A4000001B022802D90320BDE8F88F2868800126
:100A5000F4D41EE00128F7D00868E26900F48001B0
:100A6000914214D1226A00F03F0191420FD147F622
:100A7000C071626A0140914209D1A26A00F440311A
:100A8000914204D1E16A00F07060884201D00120F7
:100A9000DAE70020D8E700000838024000380240BA
:100AA00000004742800E4742007000400000FFFFF8
:100AB00070B5040005D00025A56294F8510010B16E
:100AC00006E0012070BD84F85050204600F030F858
:100AD000022084F851002068016821F04001016083
:100AE000D4E901010843D4E90312114308436169C1
:100AF0000843218B01F400710843E1690843216A2E
:100B00000843A16A084321680860A069042101EA3A
:100B10001040616A0843216848602068C16921F477
:100B20000061C1616565012084F85100002070BD3D
:100B300010B586B0044614216846FFF779FB1349C7
:100B40002068884220D112480021026842F4805275
:100B50000260006800F4805005900D481438026867
:100B600042F002020260006800F0020005902820B6
:100B700000900220CDE9010103200390052004909C
:100B800069460448FFF7A6FB06B010BD00300140DF
:100B900044380240000402402DE9F84F044690F822
:100BA000500000271D461646894601280DD04FF0FB
:100BB000010B84F850B0FFF76FFC804694F85100A9
:100BC000BA46012804D002278EE00220BDE8F88F43
:100BD000B9F1000F7DD0002E7BD0032084F85100A6
:100BE000C4F854A0C4F83090A686E686C4F838A0AD
:100BF000A4F83CA0A4F83EA0C4F844A0C4F840A0C7
:100C0000A068B0F5004F04D12068016841F480412C
:100C1000016020680168490603D4016841F0400181
:100C20000160E068B0F5006F606803D030B3012E5A
:100C300024D040E008B1012E1CD1206B216800882F
:100C4000C86006E020688168890709D5216B09889A
:100C5000C160206B801C2063E08E401EE08609E0AE
:100C6000FFF71AFCA0EB0800A84202D3681C01D0D1
:100C700031E07DB3E08E0028E4D11FE0206B2168D5
:100C80000078087306E020688168890709D5216B20
:100C900009780173206B401C2063E08E401EE086C3
:100CA00009E0FFF7F9FBA0EB0800A84202D3681C9B
:100CB00001D010E075B1E08E0028E4D1424629460B
:100CC000204600F027FA08B120206065A06820B116
:100CD00007E008E0FFE7032706E02068C1688068B6
:100CE0000090606D00B1012784F851B084F850A0E5
:100CF00038466BE710B5401EB0F1807F01D301206C
:100D000010BD4FF0E02460610F21601700F0D7FAAA
:100D10000020A06107202061002010BDFEE72DE922
:100D2000F04107461C4615460E462A2000F066F99B
:100D3000380A00F071F9F8B200F06EF9280A00F0F4
:100D40006BF9E8B200F068F92B2000F057F9300A8F
:100D500000F062F9F0B200F05FF9200A00F05CF9EF
:100D6000E0B200F059F9BDE8F0412C2000F046B99E
:100D700070B5020AC3B2124900204FF4107400BFCC
:100D800001F8102001EB4005401C80B26B70A042BE
:100D9000F6D3EF2300211A460846FFF7C0FF0122D1
:100DA00010210848FFF772FB00244FF49065294694
:100DB000034800F025FA641CA4B2642CF7D370BD7C
:100DC000680000200004024070B500F033F96D4C5B
:100DD000002240212046FFF759FBA5150022294695
:100DE0002046FFF753FB6420FFF762FA01222946F1
:100DF0002046FFF74BFB00F065F97820FFF758FA23
:100E0000112000F0FBF87820FFF752FA362000F0AE
:100E1000F5F8002000F000F93A2000F0EFF8652026
:100E200000F0FAF8B22000F0E9F80C2000F0F4F835
:100E30000C2000F0F1F8002000F0EEF8332000F074
:100E4000EBF8332000F0E8F8B72000F0D7F8722074
:100E500000F0E2F8BB2000F0D1F83D2000F0DCF813
:100E6000C02000F0CBF82C2000F0D6F8C22000F013
:100E7000C5F8012000F0D0F8C32000F0BFF8192019
:100E800000F0CAF8C42000F0B9F8202000F0C4F83F
:100E9000C62000F0B3F80F2000F0BEF8D02000F01C
:100EA000ADF8A42000F0B8F8A12000F0B5F8E020DB
:100EB00000F0A4F8D02000F0AFF8042000F0ACF867
:100EC0000D2000F0A9F8112000F0A6F8132000F082
:100ED000A3F82B2000F0A0F83F2000F09DF854204C
:100EE00000F09AF84C2000F097F8182000F094F8E1
:100EF0000D2000F091F80B2000F08EF81F2000F07C
:100F00008BF8232000F088F8E12000F077F8D0205B
:100F100000F082F8042000F07FF80C2000F07CF84C
:100F2000112000F079F8132000F076F82C2000F062
:100F300073F83F2000F070F8442000F06DF8512065
:100F400000F06AF82F2000F067F81F2000F064F826
:100F50001F2000F061F8202000F05EF8232000F050
:100F60005BF8212000F04AF8292000F047F84FF6FE
:100F7000FF70FFF7FDFE2046BDE8704001224021D2
:100F8000FFF784BA001802402DE9F04702FB03F492
:100F9000660000250244DDF820903446F02A29D866
:100FA0000B44F02B26D85B1E521E9BB292B2FFF769
:100FB000B6FE012210211048FFF768FA4FF6FF77BE
:100FC0004FF4803813E0444508D33946484600F0D2
:100FD00017F9A4F57F44B944FF3C06E0B4FBF7F0F1
:100FE00007FB1041484600F00BF96D1CEDB2B5EB64
:100FF000164FE8D9BDE8F0870004024001B5002291
:1010000010210448FFF742FA0121684600F0F8F881
:1010100008BD00000004024001B50122102104486F
:10102000FFF734FA0121684600F0EAF808BD000035
:1010300000040240F0B587B014216846FFF7F8F8C5
:101040001D480024016841F080010160016801F041
:1010500080010591016841F040010160016801F0E3
:1010600040010591016841F0020101600068134EE2
:1010700000F002004FF4E07505900022294630464A
:10108000FFF704FA0E4F002210213846FFF7FEF951
:1010900000950125CDE90154694630460394FFF7D8
:1010A00019F910200090CDE901546946384603949F
:1010B000FFF710F907B0F0BD3038024000180240C9
:1010C00000040240104810B50E4901604FF48271CF
:1010D0004160002102228160C0E9031201224261C5
:1010E0005202C0E906210162416281620A21C162A5
:1010F000FFF7DEFC002803D0BDE81040FFF7D6B8AC
:1011000010BD00000030014010000020FEE77047D5
:101110007047000038B504461248134B0068B0FB16
:10112000F3F04FF47A73584300906068B0F5827F13
:101130000DD10B46009200228021204600F016F8C7
:1011400070B1606D40F020006065032038BD0098EC
:1011500030B1401E009020688068C0430006F6D57C
:10116000002038BD0C00002000366E012DE9F04152
:101170001D4617460E460446DDF8188008E0681C38
:1011800006D0FFF789F9A0EB0800A8420BD255B1B1
:101190002068806836EA000030D00020B842EED1E6
:1011A0000020BDE8F0812068416821F0E001416045
:1011B0006068B0F5827F0BD1A068B0F5004F02D017
:1011C000B0F5806F04D12068016821F04001016012
:1011D000A06AB0F5005F09D12068016821F40051D0
:1011E00001602068016841F400510160012084F829
:1011F0005100002084F850000320D2E70120CDE701
:101200000A4601464FF47A730148FFF7C5BC000057
:10121000100000207047FFF745B9000030B593B0CB
:1012200030216846FFF704F814210CA8FFF700F8F6
:1012300019480025016841F080510160006800F004
:10124000805011901548016841F4804101600068A8
:10125000022400F48040119001200390102004909B
:10126000009406940820CDE907506420CDE90904D4
:1012700004200B906846FFF76DFA0CA90F2081E857
:1012800031004FF4A0500F90E002109003210CA801
:10129000FFF794F913B030BD4038024000700040B1
:1012A0000548016841F47001016003494FF0006096
:1012B000803908607047000088ED00E0FEE709070C
:1012C000090E002804DB00F1E02080F800147047CC
:1012D00000F00F0000F1E02080F8141D704702E0DC
:1012E00008C8121F08C1002AFAD1704770470020B1
:1012F00001E001C1121F002AFBD17047F8B5894CEB
:10130000F02300211A4608460094FFF73DFEC8204E
:10131000FEF7CEFF04F5E135F02300211A4608461A
:101320000095FFF731FE1920FEF7C2FF04F561308A
:10133000F023002100901A460846FFF725FE1920E9
:10134000FEF7B6FF05F56130F023002100901A4644
:101350000846FFF719FE1920FEF7AAFF04F5E1265B
:10136000F02300211A4608460096FFF70DFE40F2D2
:101370004510FEF79DFFF02300211A460846009411
:10138000FFF702FE3220FEF793FFF02300211A46FA
:1013900008460095FFF7F8FD1920FEF789FFF023B6
:1013A00000211A4608460096FFF7EEFD1920FEF7C9
:1013B0007FFFF02300211A4608460094FFF7E4FD62
:1013C0003220FEF775FFF02300211A4608460095EB
:1013D000FFF7DAFD1920FEF76BFFF02300211A4614
:1013E00008460096FFF7D0FD40F239373846FEF741
:1013F0005FFFF02300211A4608460094FFF7C4FD62
:101400003220FEF755FFF02300211A4608460095CA
:10141000FFF7BAFD1920FEF74BFFF02300211A4613
:1014200008460096FFF7B0FD3846FEF741FFF0236F
:1014300000211A4608460094FFF7A6FD3220FEF769
:1014400037FFF02300211A4608460095FFF79CFD60
:101450001920FEF72DFFF02300211A4608460096BA
:10146000FFF792FD3846FEF723FFF02300211A46CE
:1014700008460094FFF788FD3220FEF719FFF0239D
:1014800000211A4608460095FFF77EFD1920FEF759
:101490000FFFF02300211A4608460096FFF774FD5F
:1014A0001920FEF705FFF02300211A460846009494
:1014B000FFF76AFD3220FEF7FBFEF02300211A46FB
:1014C00008460095FFF760FD1920FEF7F1FEF023B6
:1014D00000211A4608460096FFF756FD3846FEF7EB
:1014E000E7FEF02300211A4608460094FFF74CFD62
:1014F0003220FEF7DDFEF02300211A460846009553
:10150000FFF742FD1920FEF7D3FEF02300211A4613
:1015100008460096FFF738FDBDE8F84040F2262067
:10152000FEF7C6BE42150008FEF7C4FFFFF776FEC1
:10153000FFF780FDFFF7C6FDFFF746FCFFF7DEFE75
:10154000FCE7FFFFFFFFFFFFFFFFFFFFFFFFFFFFC6
:10155000FFFFFFFFFFFFFFFFFFFFFFFFFFFFFFFF9B
:10156000FFFFFFFFFFFFFFFFFFFFFFFFFFFFFFFF8B
:10157000FFFFFFFFFFFFFFFFFFFFFFFFFFFFFFFF7B
:10158000FFFFFFFFFFFFFFFFFFFFFFFFFFFFFFFF6B
:10EF3000F79EDEDBCE79CE59CE59CE59CE59CE5979
:10EF4000CE59CE59CE59CE59CE59CE59CE59CE5989
:10EF5000CE59CE59CE59CE59CE59CE59CE59CE5979
:10EF6000CE59CE59CE59CE59CE59CE59CE59CE5969
:10EF7000CE59CE59CE59CE59CE59CE59CE59CE5959
:10EF8000CE59CE59CE59CE59CE59CE59CE59CE5949
:10EF9000CE59CE59CE59CE59CE59CE59CE59CE5939
:10EFA000CE59CE59CE59CE59CE59CE59CE59CE5929
:10EFB000CE59CE59CE59CE59CE59CE59CE59CE5919
:10EFC000CE59CE59CE59CE59CE59CE59CE59CE5909
:10EFD000CE59CE59CE59CE59CE59CE59CE59CE59F9
:10EFE000CE59CE59CE59CE59CE59CE59CE59CE59E9
:10EFF000CE59CE59CE59CE59CE59CE59CE59CE59D9
:10F00000CE59CE59CE59CE59CE59CE59CE59CE59C8
:10F01000CE59CE59CE59CE59CE59CE59CE59CE59B8
:10F02000CE59CE59CE59CE59CE59CE59CE59D6BA3F
:10F03000EF5DFFFFFFFFFFFFFFFFFFFFFFFFFFFF92
:10F04000FFFFFFFFFFFFFFFFFFFFFFFFFFFFFFFFD0
:10F05000FFFFFFFFFFFFFFFFFFFFFFFFFFFFFFFFC0
:10F06000FFFFFFFFFFFFFFFFFFFFFFFFFFFFFFFFB0
:10F07000FFFFFFFFFFFFFFFFFFFFFFFFFFFFFFFFA0
:10F08000FFFFFFFFFFFFFFFFFFFFFFFFFFFFFFFF90
:10F09000FFFFFFFFFFFFFFFFFFFFFFFFFFFFFFFF80
:10F0A000FFFFFFFFFFFFFFFFFFFFFFFFFFFFFFFF70
:10F0B000FFFFFFFFFFFFFFFFFFFFFFFFFFFFFFFF60
:10F0C000FFFFFFFFFFFFFFFFFFFFFFFFFFFFFFFF50
:10F0D000FFFFFFFFFFFFFFFFFFFFFFFFFFFFFFFF40
:10F0E000FFFFFFFFFFFFFFFFFFFFFFFFFFFFFFFF30
:10F0F000FFFFFFFFFFFFFFFFFFFFFFFFFFFFFFFF20
:10F10000FFFFFFFFFFFFFFFFFFFFFFFFFFDFDEDB74
:10F11000AD55738E420831A639E739C739C739C7AB
:10F1200039C739C739C739C739C739C739C739C7DF
:10F1300039C739C739C739C739C739C739C739C7CF
:10F1400039C739C739C739C739C739C739C739C7BF
:10F1500039C739C739C739C739C739C739C739C7AF
:10F1600039C739C739C739C739C739C739C739C79F
:10F1700039C739C739C739C739C739C739C739C78F
:10F1800039C739C739C739C739C739C739C739C77F
:10F1900039C739C739C739C739C739C739C739C76F
:10F1A00039C739C739C739C739C739C739C739C75F
:10F1B00039C739C739C739C739C739C739C739C74F
:10F1C00039C739C739C739C739C739C739C739C73F
:10F1D00039C739C739C739C739C739C739C739C72F
:10F1E00039C739C739C739C739C739C739C739C71F
:10F1F00039C739C739C739C739C739C739C739C70F
:10F2000039C739C739C739C739C731A639C7630CB8
:10F2100094B2CE59F7BEFFFFFFFFFFFFFFFFFFFFD6
:10F22000FFFFFFFFFFFFFFFFFFFFFFFFFFFFFFFFEE
:10F23000FFFFFFFFFFFFFFFFFFFFFFFFFFFFFFFFDE
:10F24000FFFFFFFFFFFFFFFFFFFFFFFFFFFFFFFFCE
:10F25000FFFFFFFFFFFFFFFFFFFFFFFFFFFFFFFFBE
:10F26000FFFFFFFFFFFFFFFFFFFFFFFFFFFFFFFFAE
:10F27000FFFFFFFFFFFFFFFFFFFFFFFFFFFFFFFF9E
:10F28000FFFFFFFFFFFFFFFFFFFFFFFFFFFFFFFF8E
:10F29000FFFFFFFFFFFFFFFFFFFFFFFFFFFFFFFF7E
:10F2A000FFFFFFFFFFFFFFFFFFFFFFFFFFFFFFFF6E
:10F2B000FFFFFFFFFFFFFFFFFFFFFFFFFFFFFFFF5E
:10F2C000FFFFFFFFFFFFFFFFFFFFFFFFFFFFFFFF4E
:10F2D000FFFFFFFFFFFFFFFFFFFFFFFFFFFFFFFF3E
:10F2E000FFFFFFFFFFFFFFFFFFFFFFDFCE7952AA07
:10F2F000000000000000000000000000000000000E
:10F3000000000000000000000000000000000000FD
:10F3100000000000000000000000000000000000ED
:10F3200000000000000000000000000000000000DD
:10F3300000000000000000000000000000000000CD
:10F3400000000000000000000000000000000000BD
:10F3500000000000000000000000000000000000AD
:10F36000000000000000000000000000000000009D
:10F37000000000000000000000000000000000008D
:10F38000000000000000000000000000000000007D
:10F39000000000000000000000000000000000006D
:10F3A000000000000000000000000000000000005D
:10F3B000000000000000000000000000000000004D
:10F3C000000000000000000000000000000000003D
:10F3D000000000000000000000000000000000002D
:10F3E000000000000000000000000000000000001D
:10F3F00000000000AD75F7BEFFFFFFFFFFFFFFFF3E
:10F40000FFFFFFFFFFFFFFFFFFFFFFFFFFFFFFFF0C
:10F41000FFFFFFFFFFFFFFFFFFFFFFFFFFFFFFFFFC
:10F42000FFFFFFFFFFFFFFFFFFFFFFFFFFFFFFFFEC
:10F43000FFFFFFFFFFFFFFFFFFFFFFFFFFFFFFFFDC
:10F44000FFFFFFFFFFFFFFFFFFFFFFFFFFFFFFFFCC
:10F45000FFFFFFFFFFFFFFFFFFFFFFFFFFFFFFFFBC
:10F46000FFFFFFFFFFFFFFFFFFFFFFFFFFFFFFFFAC
:10F47000FFFFFFFFFFFFFFFFFFFFFFFFFFFFFFFF9C
:10F48000FFFFFFFFFFFFFFFFFFFFFFFFFFFFFFFF8C
:10F49000FFFFFFFFFFFFFFFFFFFFFFFFFFFFFFFF7C
:10F4A000FFFFFFFFFFFFFFFFFFFFFFFFFFFFFFFF6C
:10F4B000FFFFFFFFFFFFFFFFFFFFFFFFFFFFFFFF5C
:10F4C000FFFFFFFFFFFFFFFFFFFFDEFB29650000DF
:10F4D000000010A21082108210821082108210820E
:10F4E000108210821082108210821082108210828C
:10F4F000108210821082108210821082108210827C
:10F50000108210821082108210821082108210826B
:10F51000108210821082108210821082108210825B
:10F52000108210821082108210821082108210824B
:10F53000108210821082108210821082108210823B
:10F54000108210821082108210821082108210822B
:10F55000108210821082108210821082108210821B
:10F56000108210821082108210821082108210820B
:10F5700010821082108210821082108210821082FB
:10F5800010821082108210821082108210821082EB
:10F5900010821082108210821082108210821082DB
:10F5A00010821082108210821082108210821082CB
:10F5B00010821082108210821082108210821082BB
:10F5C00010821082108208610861108210821082FD
:10F5D000108200000000BDF7FFDFFFFFFFFFFFFF0D
:10F5E000FFFFFFFFFFFFFFFFFFFFFFFFFFFFFFFF2B
:10F5F000FFFFFFFFFFFFFFFFFFFFFFFFFFFFFFFF1B
:10F60000FFFFFFFFFFFFFFFFFFFFFFFFFFFFFFFF0A
:10F61000FFFFFFFFFFFFFFFFFFFFFFFFFFFFFFFFFA
:10F62000FFFFFFFFFFFFFFFFFFFFFFFFFFFFFFFFEA
:10F63000FFFFFFFFFFFFFFFFFFFFFFFFFFFFFFFFDA
:10F64000FFFFFFFFFFFFFFFFFFFFFFFFFFFFFFFFCA
:10F65000FFFFFFFFFFFFFFFFFFFFFFFFFFFFFFFFBA
:10F66000FFFFFFFFFFFFFFFFFFFFFFFFFFFFFFFFAA
:10F67000FFFFFFFFFFFFFFFFFFFFFFFFFFFFFFFF9A
:10F68000FFFFFFFFFFFFFFFFFFFFFFFFFFFFFFFF8A
:10F69000FFFFFFFFFFFFFFFFFFFFFFFFFFFFFFFF7A
:10F6A000FFFFFFFFFFFFFFFFF79E949200000000A7
:10F6B0001082086108611082108208610861086187
:10F6C00008610861086108610861086108610861F2
:10F6D00008610861086108610861086108610861E2
:10F6E00008610861086108610861086108610861D2
:10F6F00008610861086108610861086108610861C2
:10F7000008610861086108610861086108610861B1
:10F7100008610861086108610861086108610861A1
:10F720000861086108610861086108610861086191
:10F730000861086108610861086108610861086181
:10F740000861086108610861086108610861086171
:10F750000861086108610861086108610861086161
:10F760000861086108610861086108610861086151
:10F770000861086108610861086108610861086141
:10F780000861086108610861086108610861086131
:10F790000861086108610861086108610861086121
:10F7A0000861086108610861086108610861086111
:10F7B000086108610000528AE71CFFFFFFFFFFFF9E
:10F7C000FFFFFFFFFFFFFFFFFFFFFFFFFFFFFFFF49
:10F7D000FFFFFFFFFFFFFFFFFFFFFFFFFFFFFFFF39
:10F7E000FFFFFFFFFFFFFFFFFFFFFFFFFFFFFFFF29
:10F7F000FFFFFFFFFFFFFFFFFFFFFFFFFFFFFFFF19
:10F80000FFFFFFFFFFFFFFFFFFFFFFFFFFFFFFFF08
:10F81000FFFFFFFFFFFFFFFFFFFFFFFFFFFFFFFFF8
:10F82000FFFFFFFFFFFFFFFFFFFFFFFFFFFFFFFFE8
:10F83000FFFFFFFFFFFFFFFFFFFFFFFFFFFFFFFFD8
:10F84000FFFFFFFFFFFFFFFFFFFFFFFFFFFFFFFFC8
:10F85000FFFFFFFFFFFFFFFFFFFFFFFFFFFFFFFFB8
:10F86000FFFFFFFFFFFFFFFFFFFFFFFFFFFFFFFFA8
:10F87000FFFFFFFFFFFFFFFFFFFFFFFFFFFFFFFF98
:10F88000FFFFFFFFFFFFFFFFDEFB39E7000008413E
:10F8900010820861086108610861086108610861F7
:10F8A0000861086108610861086108610861086110
:10F8B0000861086108610861086108610861086100
:10F8C00008610861086108610861086108610861F0
:10F8D00008610861086108610861086108610861E0
:10F8E00008610861086108610861086108610861D0
:10F8F00008610861086108610861086108610861C0
:10F9000008610861086108610861086108610861AF
:10F91000086108610861086108610861086108619F
:10F92000086108610861086108610861086108618F
:10F93000086108610861086108610861086108617F
:10F94000086108610861086108610861086108616F
:10F95000086108610861086108610861086108615F
:10F96000086108610861086108610861086108614F
:10F97000086108610861086108610861086108613F
:10F98000086108610861086108610861086108612F
:10F990000861086100000000C638FFFFFFFFFFFF9D
:10F9A000FFFFFFFFFFFFFFFFFFFFFFFFFFFFFFFF67
:10F9B000FFFFFFFFFFFFFFFFFFFFFFFFFFFFFFFF57
:10F9C000FFFFFFFFFFFFFFFFFFFFFFFFFFFFFFFF47
:10F9D000FFFFFFFFFFFFFFFFFFFFFFFFFFFFFFFF37
:10F9E000FFFFFFFFFFFFFFFFFFFFFFFFFFFFFFFF27
:10F9F000FFFFFFFFFFFFFFFFFFFFFFFFFFFFFFFF17
:10FA0000FFFFFFFFFFFFFFFFFFFFFFFFFFFFFFFF06
:10FA1000FFFFFFFFFFFFFFFFFFFFFFFFFFFFFFFFF6
:10FA2000FFFFFFFFFFFFFFFFFFFFFFFFFFFFFFFFE6
:10FA3000FFFFFFFFFFFFFFFFFFFFFFFFFFFFFFFFD6
:10FA4000FFFFFFFFFFFFFFFFFFFFFFFFFFFFFFFFC6
:10FA5000FFFFFFFFFFFFFFFFFFFFFFFFFFFFFFFFB6
:10FA6000FFFFFFFFFFFFFFFFCE79000000000861EE
:10FA7000086108610861086108610861086108613E
:10FA8000086108610861086108610861086108612E
:10FA9000086108610861086108610861086108611E
:10FAA000086108610861086108610861086108610E
:10FAB00008610861086108610861086108610861FE
:10FAC00008610861086108610861086108610861EE
:10FAD00008610861086108610861086108610861DE
:10FAE00008610861086108610861086108610861CE
:10FAF00008610861086108610861086108610861BE
:10FB000008610861086108610861086108610861AD
:10FB1000086108610861086108610861086108619D
:10FB2000086108610861086108610861086108618D
:10FB3000086108610861086108610861086108617D
:10FB4000086108610861086108610861086108616D
:10FB5000086108610861086108610861086108615D
:10FB6000086108610861086108610861086108614D
:10FB70000861086110820000AD75F7BEFFFFFFFF4E
:10FB8000FFFFFFFFFFFFFFFFFFFFFFFFFFFFFFFF85
:10FB9000FFFFFFFFFFFFFFFFFFFFFFFFFFFFFFFF75
:10FBA000FFFFFFFFFFFFFFFFFFFFFFFFFFFFFFFF65
:10FBB000FFFFFFFFFFFFFFFFFFFFFFFFFFFFFFFF55
:10FBC000FFFFFFFFFFFFFFFFFFFFFFFFFFFFFFFF45
:10FBD000FFFFFFFFFFFFFFFFFFFFFFFFFFFFFFFF35
:10FBE000FFFFFFFFFFFFFFFFFFFFFFFFFFFFFFFF25
:10FBF000FFFFFFFFFFFFFFFFFFFFFFFFFFFFFFFF15
:10FC0000FFFFFFFFFFFFFFFFFFFFFFFFFFFFFFFF04
:10FC1000FFFFFFFFFFFFFFFFFFFFFFFFFFFFFFFFF4
:10FC2000FFFFFFFFFFFFFFFFFFFFFFFFFFFFFFFFE4
:10FC3000FFFFFFFFFFFFFFFFFFFFFFFFFFFFFFFFD4
:10FC4000FFFFFFFFFFFFFFFFCE590000000008612C
:10FC50001082086108610861086108610861086133
:10FC6000086108610861086108610861086108614C
:10FC7000086108610861086108610861086108613C
:10FC8000086108610861086108610861086108612C
:10FC9000086108610861086108610861086108611C
:10FCA000086108610861086108610861086108610C
:10FCB00008610861086108610861086108610861FC
:10FCC00008610861086108610861086108610861EC
:10FCD00008610861086108610861086108610861DC
:10FCE00008610861086108610861086108610861CC
:10FCF00008610861086108610861086108610861BC
:10FD000008610861086108610861086108610861AB
:10FD1000086108610861086108610861086108619B
:10FD2000086108610861086108610861086108618B
:10FD3000086108610861086108610861086108617B
:10FD4000086108610861086108610861086108616B
:10FD50000861086110820000AD55F79EFFFFFFFFAC
:10FD6000FFFFFFFFFFFFFFFFFFFFFFFFFFFFFFFFA3
:10FD7000FFFFFFFFFFFFFFFFFFFFFFFFFFFFFFFF93
:10FD8000FFFFFFFFFFFFFFFFFFFFFFFFFFFFFFFF83
:10FD9000FFFFFFFFFFFFFFFFFFFFFFFFFFFFFFFF73
:10FDA000FFFFFFFFFFFFFFFFFFFFFFFFFFFFFFFF63
:10FDB000FFFFFFFFFFFFFFFFFFFFFFFFFFFFFFFF53
:10FDC000FFFFFFFFFFFFFFFFFFFFFFFFFFFFFFFF43
:10FDD000FFFFFFFFFFFFFFFFFFFFFFFFFFFFFFFF33
:10FDE000FFFFFFFFFFFFFFFFFFFFFFFFFFFFFFFF23
:10FDF000FFFFFFFFFFFFFFFFFFFFFFFFFFFFFFFF13
:10FE0000FFFFFFFFFFFFFFFFFFFFFFFFFFFFFFFF02
:10FE1000FFFFFFFFFFFFFFFFFFFFFFFFFFFFFFFFF2
:10FE2000FFFFFFFFFFFFFFFFD69A00000000084121
:10FE3000086108610861086108610861086108617A
:10FE4000086108610861086108610861086108616A
:10FE5000086108610861086108610861086108615A
:10FE6000086108610861086108610861086108614A
:10FE7000086108610861086108610861086108613A
:10FE8000086108610861086108610861086108612A
:10FE9000086108610861086108610861086108611A
:10FEA000086108610861086108610861086108610A
:10FEB00008610861086108610861086108610861FA
:10FEC00008610861086108610861086108610861EA
:10FED00008610861086108610861086108610861DA
:10FEE00008610861086108610861086108610861CA
:10FEF00008610861086108610861086108610861BA
:10FF000008610861086108610861086108610861A9
:10FF10000861086108610861086108610861086199
:10FF20000861086108610861086108610861086189
:10FF30000861086108610000B5B6F7BEFFFFFFFF6A
:10FF4000FFFFFFFFFFFFFFFFFFFFFFFFFFFFFFFFC1
:10FF5000FFFFFFFFFFFFFFFFFFFFFFFFFFFFFFFFB1
:10FF6000FFFFFFFFFFFFFFFFFFFFFFFFFFFFFFFFA1
:10FF7000FFFFFFFFFFFFFFFFFFFFFFFFFFFFFFFF91
:10FF8000FFFFFFFFFFFFFFFFFFFFFFFFFFFFFFFF81
:10FF9000FFFFFFFFFFFFFFFFFFFFFFFFFFFFFFFF71
:10FFA000FFFFFFFFFFFFFFFFFFFFFFFFFFFFFFFF61
:10FFB000FFFFFFFFFFFFFFFFFFFFFFFFFFFFFFFF51
:10FFC000FFFFFFFFFFFFFFFFFFFFFFFFFFFFFFFF41
:10FFD000FFFFFFFFFFFFFFFFFFFFFFFFFFFFFFFF31
:10FFE000FFFFFFFFFFFFFFFFFFFFFFFFFFFFFFFF21
:10FFF000FFFFFFFFFFFFFFFFFFFFFFFFFFFFFFFF11
:020000040801F1
:10000000FFFFFFFFFFFFFFFFE73C632C0000000046
:10001000108208610861086108610861086108616F
:100020000861086108610861086108610861086188
:100030000861086108610861086108610861086178
:100040000861086108610861086108610861086168
:100050000861086108610861086108610861086158
:100060000861086108610861086108610861086148
:100070000861086108610861086108610861086138
:100080000861086108610861086108610861086128
:100090000861086108610861086108610861086118
:1000A0000861086108610861086108610861086108
:1000B00008610861086108610861086108610861F8
:1000C00008610861086108610861086108610861E8
:1000D00008610861086108610861086108610861D8
:1000E00008610861086108610861086108610861C8
:1000F00008610861086108610861086108610861B8
:1001000008610861086108610861086108610861A7
:100110000861108200000000CE79FFFFFFFFFFFFA3
:10012000FFFFFFFFFFFFFFFFFFFFFFFFFFFFFFFFDF
:10013000FFFFFFFFFFFFFFFFFFFFFFFFFFFFFFFFCF
:10014000FFFFFFFFFFFFFFFFFFFFFFFFFFFFFFFFBF
:10015000FFFFFFFFFFFFFFFFFFFFFFFFFFFFFFFFAF
:10016000FFFFFFFFFFFFFFFFFFFFFFFFFFFFFFFF9F
:10017000FFFFFFFFFFFFFFFFFFFFFFFFFFFFFFFF8F
:10018000FFFFFFFFFFFFFFFFFFFFFFFFFFFFFFFF7F
:10019000FFFFFFFFFFFFFFFFFFFFFFFFFFFFFFFF6F
:1001A000FFFFFFFFFFFFFFFFFFFFFFFFFFFFFFFF5F
:1001B000FFFFFFFFFFFFFFFFFFFFFFFFFFFFFFFF4F
:1001C000FFFFFFFFFFFFFFFFFFFFFFFFFFFFFFFF3F
:1001D000FFFFFFFFFFFFFFFFFFFFFFFFFFFFFFFF2F
:1001E000FFFFFFFFFFFFFFFFFFDFB59600000000EE
:1001F0000020108210820861086110821082108233
:10020000108210821082108210821082108210825E
:10021000108210821082108210821082108210824E
:10022000108210821082108210821082108210823E
:10023000108210821082108210821082108210822E
:10024000108210821082108210821082108210821E
:10025000108210821082108210821082108210820E
:1002600010821082108210821082108210821082FE
:1002700010821082108210821082108210821082EE
:1002800010821082108210821082108210821082DE
:1002900010821082108210821082108210821082CE
:1002A00010821082108210821082108210821082BE
:1002B00010821082108210821082108210821082AE
:1002C000108210821082108210821082108210829E
:1002D000108210821082108210821082108210828E
:1002E000108210821082108210821082108210827E
:1002F0001082000000008430EF7DFFFFFFFFFFFF52
:10030000FFFFFFFFFFFFFFFFFFFFFFFFFFFFFFFFFD
:10031000FFFFFFFFFFFFFFFFFFFFFFFFFFFFFFFFED
:10032000FFFFFFFFFFFFFFFFFFFFFFFFFFFFFFFFDD
:10033000FFFFFFFFFFFFFFFFFFFFFFFFFFFFFFFFCD
:10034000FFFFFFFFFFFFFFFFFFFFFFFFFFFFFFFFBD
:10035000FFFFFFFFFFFFFFFFFFFFFFFFFFFFFFFFAD
:10036000FFFFFFFFFFFFFFFFFFFFFFFFFFFFFFFF9D
:10037000FFFFFFFFFFFFFFFFFFFFFFFFFFFFFFFF8D
:10038000FFFFFFFFFFFFFFFFFFFFFFFFFFFFFFFF7D
:10039000FFFFFFFFFFFFFFFFFFFFFFFFFFFFFFFF6D
:1003A000FFFFFFFFFFFFFFFFFFFFFFFFFFFFFFFF5D
:1003B000FFFFFFFFFFFFFFFFFFFFFFFFFFFFFFFF4D
:1003C000FFFFFFFFFFFFFFFFFFFFEF7D7BCF2965F3
:1003D000000000000000000000000000000000001D
:1003E000000000000000000000000000000000000D
:1003F00000000000000000000000000000000000FD
:1004000000000000000000000000000000000000EC
:1004100000000000000000000000000000000000DC
:1004200000000000000000000000000000000000CC
:1004300000000000000000000000000000000000BC
:1004400000000000000000000000000000000000AC
:10045000000000000000000000000000000000009C
:10046000000000000000000000000000000000008C
:10047000000000000000000000000000000000007C
:10048000000000000000000000000000000000006C
:10049000000000000000000000000000000000005C
:1004A000000000000000000000000000000000004C
:1004B000000000000000000000000000000000003C
:1004C000000000000000000000000000000000002C
:1004D000000008614208DEDBFFFFFFFFFFFFFFFFB8
:1004E000FFFFFFFFFFFFFFFFFFFFFFFFFFFFFFFF1C
:1004F000FFFFFFFFFFFFFFFFFFFFFFFFFFFFFFFF0C
:10050000FFFFFFFFFFFFFFFFFFFFFFFFFFFFFFFFFB
:10051000FFFFFFFFFFFFFFFFFFFFFFFFFFFFFFFFEB
:10052000FFFFFFFFFFFFFFFFFFFFFFFFFFFFFFFFDB
:10053000FFFFFFFFFFFFFFFFFFFFFFFFFFFFFFFFCB
:10054000FFFFFFFFFFFFFFFFFFFFFFFFFFFFFFFFBB
:10055000FFFFFFFFFFFFFFFFFFFFFFFFFFFFFFFFAB
:10056000FFFFFFFFFFFFFFFFFFFFFFFFFFFFFFFF9B
:10057000FFFFFFFFFFFFFFFFFFFFFFFFFFFFFFFF8B
:10058000FFFFFFFFFFFFFFFFFFFFFFFFFFFFFFFF7B
:10059000FFFFFFFFFFFFFFFFFFFFFFFFFFFFFFFF6B
:1005A000FFFFFFFFFFFFFFFFFFFFFFFFEF5D8C710E
:1005B0002104000000000000000000000000000016
:1005C000000000000000000000000000000000002B
:1005D000000000000000000000000000000000001B
:1005E000000000000000000000000000000000000B
:1005F00000000000000000000000000000000000FB
:1006000000000000000000000000000000000000EA
:1006100000000000000000000000000000000000DA
:1006200000000000000000000000000000000000CA
:1006300000000000000000000000000000000000BA
:1006400000000000000000000000000000000000AA
:10065000000000000000000000000000000000009A
:10066000000000000000000000000000000000008A
:10067000000000000000000000000000000000007A
:10068000000000000000000000000000000000006A
:10069000000000000000000000000000000000005A
:1006A000000000000000000000000000000000004A
:1006B00000006B4DD6BAFFFFFFFFFFFFFFFFFFFFFC
:1006C000FFFFFFFFFFFFFFFFFFFFFFFFFFFFFFFF3A
:1006D000FFFFFFFFFFFFFFFFFFFFFFFFFFFFFFFF2A
:1006E000FFFFFFFFFFFFFFFFFFFFFFFFFFFFFFFF1A
:1006F000FFFFFFFFFFFFFFFFFFFFFFFFFFFFFFFF0A
:10070000FFFFFFFFFFFFFFFFFFFFFFFFFFFFFFFFF9
:10071000FFFFFFFFFFFFFFFFFFFFFFFFFFFFFFFFE9
:10072000FFFFFFFFFFFFFFFFFFFFFFFFFFFFFFFFD9
:10073000FFFFFFFFFFFFFFFFFFFFFFFFFFFFFFFFC9
:10074000FFFFFFFFFFFFFFFFFFFFFFFFFFFFFFFFB9
:10075000FFFFFFFFFFFFFFFFFFFFFFFFFFFFFFFFA9
:10076000FFFFFFFFFFFFFFFFFFFFFFFFFFFFFFFF99
:10077000FFFFFFFFFFFFFFFFFFFFFFFFFFFFFFFF89
:10078000FFFFFFFFFFFFFFFFFFFFFFFFFFFFF7BEC2
:10079000D69AA5147BEF73AE7BCF73AE73AE73AEF8
:1007A00073AE73AE73AE73AE73AE73AE73AE73AE41
:1007B00073AE73AE73AE73AE73AE73AE73AE73AE31
:1007C00073AE73AE73AE73AE73AE73AE73AE73AE21
:1007D00073AE73AE73AE73AE73AE73AE73AE73AE11
:1007E00073AE73AE73AE73AE73AE73AE73AE73AE01
:1007F00073AE73AE73AE73AE73AE73AE73AE73AEF1
:1008000073AE73AE73AE73AE73AE73AE73AE73AEE0
:1008100073AE73AE73AE73AE73AE73AE73AE73AED0
:1008200073AE73AE73AE73AE73AE73AE73AE73AEC0
:1008300073AE73AE73AE73AE73AE73AE73AE73AEB0
:1008400073AE73AE73AE73AE73AE73AE73AE73AEA0
:1008500073AE73AE73AE73AE73AE73AE73AE73AE90
:1008600073AE73AE73AE73AE73AE73AE73AE73AE80
:1008700073AE73AE73AE73AE73AE73AE73AE73AE70
:1008800073AE73AE73AE73AE73AE73AE7BCF94B212
:10089000C618EF5DFFFFFFFFFFFFFFFFFFFFFFFF3A
:1008A000FFFFFFFFFFFFFFFFFFFFFFFFFFFFFFFF58
:1008B000FFFFFFFFFFFFFFFFFFFFFFFFFFFFFFFF48
:1008C000FFFFFFFFFFFFFFFFFFFFFFFFFFFFFFFF38
:1008D000FFFFFFFFFFFFFFFFFFFFFFFFFFFFFFFF28
:1008E000FFFFFFFFFFFFFFFFFFFFFFFFFFFFFFFF18
:1008F000FFFFFFFFFFFFFFFFFFFFFFFFFFFFFFFF08
:10090000FFFFFFFFFFFFFFFFFFFFFFFFFFFFFFFFF7
:10091000FFFFFFFFFFFFFFFFFFFFFFFFFFFFFFFFE7
:10092000FFFFFFFFFFFFFFFFFFFFFFFFFFFFFFFFD7
:10093000FFFFFFFFFFFFFFFFFFFFFFFFFFFFFFFFC7
:10094000FFFFFFFFFFFFFFFFFFFFFFFFFFFFFFFFB7
:10095000FFFFFFFFFFFFFFFFFFFFFFFFFFFFFFFFA7
:10096000FFFFFFFFFFFFFFFFFFFFFFFFFFFFFFFF97
:10097000FFFFF7BEEF7DEF5DEF5DEF7DEF5DEF5DBC
:10098000EF5DEF5DEF5DEF5DEF5DEF5DEF5DEF5D07
:10099000EF5DEF5DEF5DEF5DEF5DEF5DEF5DEF5DF7
:1009A000EF5DEF5DEF5DEF5DEF5DEF5DEF5DEF5DE7
:1009B000EF5DEF5DEF5DEF5DEF5DEF5DEF5DEF5DD7
:1009C000EF5DEF5DEF5DEF5DEF5DEF5DEF5DEF5DC7
:1009D000EF5DEF5DEF5DEF5DEF5DEF5DEF5DEF5DB7
:1009E000EF5DEF5DEF5DEF5DEF5DEF5DEF5DEF5DA7
:1009F000EF5DEF5DEF5DEF5DEF5DEF5DEF5DEF5D97
:100A0000EF5DEF5DEF5DEF5DEF5DEF5DEF5DEF5D86
:100A1000EF5DEF5DEF5DEF5DEF5DEF5DEF5DEF5D76
:100A2000EF5DEF5DEF5DEF5DEF5DEF5DEF5DEF5D66
:100A3000EF5DEF5DEF5DEF5DEF5DEF5DEF5DEF5D56
:100A4000EF5DEF5DEF5DEF5DEF5DEF5DEF5DEF5D46
:100A5000EF5DEF5DEF5DEF5DEF5DEF5DEF5DEF5D36
:100A6000EF5DEF5DEF5DEF5DEF5DEF5DEF7DF79EBD
:100A7000FFDFFFFFFFFFFFFFFFFFFFFFFFFFFFFFA6
:100A8000FFFFFFFFFFFFFFFFFFFFFFFFFFFFFFFF76
:100A9000FFFFFFFFFFFFFFFFFFFFFFFFFFFFFFFF66
:100AA000FFFFFFFFFFFFFFFFFFFFFFFFFFFFFFFF56
:100AB000FFFFFFFFFFFFFFFFFFFFFFFFFFFFFFFF46
:10D56000FFFFFFDFFFDFFFDFFFDFFFDFFFDFFFDFAB
:10D57000FFDFFFDFFFDFFFDFFFDFFFDFFFDFFFDFBB
:10D58000FFDFFFDFFFDFFFDFFFDFFFDFFFDFFFDFAB
:10D59000FFDFFFDFFFDFFFDFFFDFFFDFFFDFFFDF9B
:10D5A000FFDFFFDFFFDFFFDFFFDFFFDFFFDFFFDF8B
:10D5B000FFDFFFDFFFDFFFDFFFDFFFDFFFDFFFDF7B
:10D5C000FFDFFFDFFFDFFFDFFFDFFFDFFFDFFFDF6B
:10D5D000FFDFFFDFFFDFFFDFFFDFFFDFFFDFFFDF5B
:10D5E000FFDFFFDFFFDFFFDFFFDFFFDFFFDFFFDF4B
:10D5F000FFDFFFDFFFDFFFDFFFDFFFDFFFDFFFDF3B
:10D60000FFDFFFDFFFDFFFDFFFDFFFDFFFDFFFDF2A
:10D61000FFDFFFDFFFDFFFDFFFDFFFDFFFDFFFDF1A
:10D62000FFDFFFDFFFDFFFDFFFDFFFDFFFDFFFDF0A
:10D63000FFDFFFDFFFDFFFDFFFDFFFDFFFDFFFDFFA
:10D64000FFDFFFDFFFDFFFDFFFDFFFDFFFDFFFDFEA
:10D65000FFDFFFDFFFDFFFDFFFDFFFDFFFDFFFDFDA
:10D66000FFDFFFDFFFDFFFDFFFDFFFDFFFDFFFDFCA
:10D67000FFDFFFDFFFDFFFDFFFDFFFDFFFDFFFDFBA
:10D68000FFDFFFDFFFDFFFDFFFDFFFDFFFDFFFDFAA
:10D69000FFDFFFDFFFDFFFDFFFDFFFDFFFDFFFDF9A
:10D6A000FFDFFFDFFFDFFFDFFFDFFFDFFFDFFFDF8A
:10D6B000FFDFFFDFFFDFFFDFFFDFFFDFFFDFFFDF7A
:10D6C000FFDFFFDFFFDFFFDFFFDFFFDFFFDFFFDF6A
:10D6D000FFDFFFDFFFDFFFDFFFDFFFDFFFDFFFDF5A
:10D6E000FFDFFFDFFFDFFFDFFFDFFFDFFFDFFFDF4A
:10D6F000FFDFFFDFFFDFFFDFFFDFFFDFFFDFFFDF3A
:10D70000FFDFFFDFFFDFFFDFFFDFFFDFFFDFFFDF29
:10D71000FFDFFFDFFFDFFFDFFFDFFFDFFFDFFFDF19
:10D72000FFDFFFDFFFDFFFDFFFDFFFDFFFDFFFDF09
:10D73000FFDFFFDFFFDFFFDFFFDFFFDFFFDFFFDFF9
:10D74000FFDFFFFFFFFFFFFFFFFFFFFFFFFFFFFF09
:10D75000FFFFFFFFFFFFFFFFFFFFFFFFFFFFFFFFD9
:10D76000FFFFFFFFFFFFFFFFFFFFFFFFFFFFFFFFC9
:10D77000FFFFFFFFFFFFFFFFFFFFFFFFFFFFFFFFB9
:10D78000FFFFFFFFFFFFFFFFFFFFFFFFFFFFFFFFA9
:020000040802F0
:10A48000FFFFFFFFFFFFFFFFFFFFFFDFFFDFFFDF3C
:10A49000FFDFFFDFFFDFFFFFFFFFFFFFFFFFFFFF2C
:10A4A000FFFFFFFFFFFFFFFFFFFFFFFFFFFFFFFFBC
:10A4B000FFFFFFFFFFFFFFFFFFFFFFFFFFFFFFFFAC
:10A4C000FFFFFFFFFFFFFFFFFFFFFFFFFFFFFFFF9C
:10A4D000FFFFFFFFFFFFFFFFFFFFFFFFFFFFFFFF8C
:10A4E000FFFFFFFFFFFFFFFFFFFFFFFFFFFFFFFF7C
:10A4F000FFFFFFFFFFFFFFFFFFFFFFFFFFFFFFFF6C
:10A50000FFFFFFFFFFFFFFFFFFFFFFFFFFFFFFFF5B
:10A51000FFFFFFFFFFFFFFFFFFFFFFFFFFFFFFFF4B
:10A52000FFFFFFFFFFFFFFFFFFFFFFFFFFFFFFFF3B
:10A53000FFFFFFFFFFFFFFFFFFFFFFFFFFFFFFFF2B
:10A54000FFFFFFFFFFFFFFFFFFFFFFFFFFFFFFFF1B
:10A55000FFFFFFFFFFFFFFFFFFFFFFFFFFFFFFFF0B
:10A56000FFFFFFFFFFFFFFFFFFFFFFFFFFFFFFFFFB
:10A57000FFFFFFFFFFFFFFFFFFFFFFFFFFFFFFFFEB
:10A58000FFFFFFFFFFFFFFFFFFFFFFFFFFFFFFFFDB
:10A59000FFFFFFFFFFFFFFFFFFFFFFFFFFFFFFFFCB
:10A5A000FFFFFFFFFFFFFFFFFFFFFFFFFFFFFFFFBB
:10A5B000FFFFFFFFFFFFFFFFFFFFFFFFFFFFFFFFAB
:10A5C000FFFFFFFFFFFFFFFFFFFFFFFFFFFFFFFF9B
:10A5D000FFFFFFFFFFFFFFFFFFFFFFFFFFFFFFFF8B
:10A5E000FFFFFFFFFFFFFFFFFFFFFFFFFFFFFFFF7B
:10A5F000FFFFFFFFFFFFFFFFFFFFFFFFFFFFFFFF6B
:10A60000FFFFFFFFFFFFFFFFFFFFFFFFFFFFFFFF5A
:10A61000FFFFFFFFFFFFFFFFFFFFFFFFFFFFFFFF4A
:10A62000FFFFFFFFFFFFFFFFFFFFFFFFFFFFFFFF3A
:10A63000FFFFFFFFFFFFFFFFFFFFFFFFFFFFFFDF4A
:10A64000FFDFFFDFF7BEF79EEF7DEF7DEF5DEF5D94
:10A65000E73CE71CDEFBDEDBDEDBD6BAD6BACE7922
:10A66000CE79CE59CE59C638C638C638C638C6385F
:10A67000C638C638C638C638C638C638C638CE59C1
:10A68000CE79CE79D69AD6BADEDBDEDBDEFBE71CEE
:10A69000E71CE73CEF5DEF5DEF7DF79EF79EF7BEB1
:10A6A000FFDFFFDFFFDFFFFFFFFFFFFFFFFFFFFF1A
:10A6B000FFFFFFFFFFFFFFFFFFFFFFFFFFFFFFFFAA
:10A6C000FFFFFFFFFFFFFFFFFFFFFFFFFFFFFFFF9A
:10A6D000FFFFFFFFFFFFFFFFFFFFFFFFFFFFFFFF8A
:10A6E000FFFFFFFFFFFFFFFFFFFFFFFFFFFFFFFF7A
:10A6F000FFFFFFFFFFFFFFFFFFFFFFFFFFFFFFFF6A
:10A70000FFFFFFFFFFFFFFFFFFFFFFFFFFFFFFFF59
:10A71000FFFFFFFFFFFFFFFFFFFFFFFFFFFFFFFF49
:10A72000FFFFFFFFFFFFFFFFFFFFFFFFFFFFFFFF39
:10A73000FFFFFFFFFFFFFFFFFFFFFFFFFFFFFFFF29
:10A74000FFFFFFFFFFFFFFFFFFFFFFFFFFFFFFFF19
:10A75000FFFFFFFFFFFFFFFFFFFFFFFFFFFFFFFF09
:10A76000FFFFFFFFFFFFFFFFFFFFFFFFFFFFFFFFF9
:10A77000FFFFFFFFFFFFFFFFFFFFFFFFFFFFFFFFE9
:10A78000FFFFFFFFFFFFFFFFFFFFFFFFFFFFFFFFD9
:10A79000FFFFFFFFFFFFFFFFFFFFFFFFFFFFFFFFC9
:10A7A000FFFFFFFFFFFFFFFFFFFFFFFFFFFFFFFFB9
:10A7B000FFFFFFFFFFFFFFFFFFFFFFFFFFFFFFFFA9
:10A7C000FFFFFFFFFFFFFFFFFFFFFFFFFFFFFFFF99
:10A7D000FFFFFFFFFFFFFFFFFFFFFFFFFFFFFFFF89
:10A7E000FFFFFFFFFFFFFFFFFFFFFFFFFFFFFFFF79
:10A7F000FFFFFFFFFFFFFFFFFFFFFFFFFFFFFFFF69
:10A80000FFFFFFFFFFFFFFFFFFDFFFDFF7BEF7BE2A
:10A81000F7BEF79EEF5DE71CDEFBD6BACE59C61831
:10A82000B5B6AD75A51494B284307BEF738E630C0E
:10A830005ACB4A4931A62124000000000000000044
:10A840000000000000000000000000000000000008
:10A8500000000000000000000000000000000000F8
:10A86000000000000000000000000861318642285E
:10A87000528A5AEB6B6D7BCF843094929CF3AD552A
:10A88000B596BDF7C638D69ADEDBE71CEF5DEF7DE7
:10A89000F7BEFFDFFFDFFFFFFFFFFFFFFFFFFFFF51
:10A8A000FFFFFFFFFFFFFFFFFFFFFFFFFFFFFFFFB8
:10A8B000FFFFFFFFFFFFFFFFFFFFFFFFFFFFFFFFA8
:10A8C000FFFFFFFFFFFFFFFFFFFFFFFFFFFFFFFF98
:10A8D000FFFFFFFFFFFFFFFFFFFFFFFFFFFFFFFF88
:10A8E000FFFFFFFFFFFFFFFFFFFFFFFFFFFFFFFF78
:10A8F000FFFFFFFFFFFFFFFFFFFFFFFFFFFFFFFF68
:10A90000FFFFFFFFFFFFFFFFFFFFFFFFFFFFFFFF57
:10A91000FFFFFFFFFFFFFFFFFFFFFFFFFFFFFFFF47
:10A92000FFFFFFFFFFFFFFFFFFFFFFFFFFFFFFFF37
:10A93000FFFFFFFFFFFFFFFFFFFFFFFFFFFFFFFF27
:10A94000FFFFFFFFFFFFFFFFFFFFFFFFFFFFFFFF17
:10A95000FFFFFFFFFFFFFFFFFFFFFFFFFFFFFFFF07
:10A96000FFFFFFFFFFFFFFFFFFFFFFFFFFFFFFFFF7
:10A97000FFFFFFFFFFFFFFFFFFFFFFFFFFFFFFFFE7
:10A98000FFFFFFFFFFFFFFFFFFFFFFFFFFFFFFFFD7
:10A99000FFFFFFFFFFFFFFFFFFFFFFFFFFFFFFFFC7
:10A9A000FFFFFFFFFFFFFFFFFFFFFFFFFFFFFFFFB7
:10A9B000FFFFFFFFFFFFFFFFFFFFFFFFFFFFFFFFA7
:10A9C000FFFFFFFFFFFFFFFFFFFFFFFFFFFFFFFF97
:10A9D000FFFFFFFFFFFFFFFFFFFFFFFFFFFFFFFF87
:10A9E000FFDFF79EEF5DDEFBCE79BDF7AD559CD363
:10A9F00084106B6D52AA39C70000000000000000EF
:10AA00000000000000000000000000000000000046
:10AA10000000000000000000000000000000000036
:10AA20000000000000000000000000000000000026
:10AA30000000000000000000000000000000000016
:10AA40000000000000000000000000000000000006
:10AA500000000000000000000000000000000000F6
:10AA60000000000000000000000029454A69632C36
:10AA70007BEF9492A534B5B6CE59D6BAE73CEF7DBC
:10AA8000FFDFFFFFFFFFFFFFFFFFFFFFFFFFFFFFF6
:10AA9000FFFFFFFFFFFFFFFFFFFFFFFFFFFFFFFFC6
:10AAA000FFFFFFFFFFFFFFFFFFFFFFFFFFFFFFFFB6
:10AAB000FFFFFFFFFFFFFFFFFFFFFFFFFFFFFFFFA6
:10AAC000FFFFFFFFFFFFFFFFFFFFFFFFFFFFFFFF96
:10AAD000FFFFFFFFFFFFFFFFFFFFFFFFFFFFFFFF86
:10AAE000FFFFFFFFFFFFFFFFFFFFFFFFFFFFFFFF76
:10AAF000FFFFFFFFFFFFFFFFFFFFFFFFFFFFFFFF66
:10AB0000FFFFFFFFFFFFFFFFFFFFFFFFFFFFFFFF55
:10AB1000FFFFFFFFFFFFFFFFFFFFFFFFFFFFFFFF45
:10AB2000FFFFFFFFFFFFFFFFFFFFFFFFFFFFFFFF35
:10AB3000FFFFFFFFFFFFFFFFFFFFFFFFFFFFFFFF25
:10AB4000FFFFFFFFFFFFFFFFFFFFFFFFFFFFFFFF15
:10AB5000FFFFFFFFFFFFFFFFFFFFFFFFFFFFFFFF05
:10AB6000FFFFFFFFFFFFFFFFFFFFFFFFFFFFFFFFF5
:10AB7000FFFFFFFFFFFFFFFFFFFFFFFFFFFFFFFFE5
:10AB8000FFFFFFFFFFFFFFFFFFFFFFFFFFFFFFFFD5
:10AB9000FFFFFFFFFFFFFFFFFFFFFFFFFFFFFFFFC5
:10ABA000FFFFFFFFFFFFFFFFFFFFFFFFFFFFFFFFB5
:10ABB000FFFFFFFFFFFFEF7DDEFBCE59B5B69CF335
:10ABC00084306B6D528A4228420839E731A62965E4
:10ABD000212418C300200000000000000000000035
:10ABE0000000000000000000000000000000000065
:10ABF00000200841084108410841086108610861D6
:10AC000008610861086108610861086108610861FC
:10AC100008610861086108610861086108610861EC
:10AC2000086108610861086108610861084108411C
:10AC300008410020000000000000000000000000AB
:10AC4000000000000000000000000000000010A252
:10AC500021042945318639C739E742084A69632CFE
:10AC60007BEF94B2AD75C638DEDBEF7DFFDFFFFF13
:10AC7000FFFFFFFFFFFFFFFFFFFFFFFFFFFFFFFFE4
:10AC8000FFFFFFFFFFFFFFFFFFFFFFFFFFFFFFFFD4
:10AC9000FFFFFFFFFFFFFFFFFFFFFFFFFFFFFFFFC4
:10ACA000FFFFFFFFFFFFFFFFFFFFFFFFFFFFFFFFB4
:10ACB000FFFFFFFFFFFFFFFFFFFFFFFFFFFFFFFFA4
:10ACC000FFFFFFFFFFFFFFFFFFFFFFFFFFFFFFFF94
:10ACD000FFFFFFFFFFFFFFFFFFFFFFFFFFFFFFFF84
:10ACE000FFFFFFFFFFFFFFFFFFFFFFFFFFFFFFFF74
:10ACF000FFFFFFFFFFFFFFFFFFFFFFFFFFFFFFFF64
:10AD0000FFFFFFFFFFFFFFFFFFFFFFFFFFFFFFFF53
:10AD1000FFFFFFFFFFFFFFFFFFFFFFFFFFFFFFFF43
:10AD2000FFFFFFFFFFFFFFFFFFFFFFFFFFFFFFFF33
:10AD3000FFFFFFFFFFFFFFFFFFFFFFFFFFFFFFFF23
:10AD4000FFFFFFFFFFFFFFFFFFFFFFFFFFFFFFFF13
:10AD5000FFFFFFFFFFFFFFFFFFFFFFFFFFFFFFFF03
:10AD6000FFFFFFFFFFFFFFFFFFFFFFFFFFFFFFFFF3
:10AD7000FFFFFFFFFFFFFFFFFFFFFFFFFFFFFFFFE3
:10AD8000FFFFFFFFFFFFFFFFFFFFFFDFEF7DDEDBCA
:10AD9000C618A5348C5173AE632C5ACB4A4939C7B7
:10ADA000210400000000000000000000000000007E
:10ADB00000000000000000000841086108611082E6
:10ADC0001082108208610861108210821082108245
:10ADD00010821082108210821082108210821082E3
:10ADE00010821082086108610861086108610861C9
:10ADF000086108610861086108610861086108610B
:10AE000010821082108210821082108210821082B2
:10AE100010821082086110821082108210821082CB
:10AE200008611082108208610841000000000000E3
:10AE30000000000000000000000000000000000012
:10AE400010823186422852AA630C6B6D84109CF3E9
:10AE5000BDD7D69AE73CF7BEFFFFFFFFFFFFFFFF1E
:10AE6000FFFFFFFFFFFFFFFFFFFFFFFFFFFFFFFFF2
:10AE7000FFFFFFFFFFFFFFFFFFFFFFFFFFFFFFFFE2
:10AE8000FFFFFFFFFFFFFFFFFFFFFFFFFFFFFFFFD2
:10AE9000FFFFFFFFFFFFFFFFFFFFFFFFFFFFFFFFC2
:10AEA000FFFFFFFFFFFFFFFFFFFFFFFFFFFFFFFFB2
:10AEB000FFFFFFFFFFFFFFFFFFFFFFFFFFFFFFFFA2
:10AEC000FFFFFFFFFFFFFFFFFFFFFFFFFFFFFFFF92
:10AED000FFFFFFFFFFFFFFFFFFFFFFFFFFFFFFFF82
:10AEE000FFFFFFFFFFFFFFFFFFFFFFFFFFFFFFFF72
:10AEF000FFFFFFFFFFFFFFFFFFFFFFFFFFFFFFFF62
:10AF0000FFFFFFFFFFFFFFFFFFFFFFFFFFFFFFFF51
:10AF1000FFFFFFFFFFFFFFFFFFFFFFFFFFFFFFFF41
:10AF2000FFFFFFFFFFFFFFFFFFFFFFFFFFFFFFFF31
:10AF3000FFFFFFFFFFFFFFFFFFFFFFFFFFFFFFFF21
:10AF4000FFFFFFFFFFFFFFFFFFFFFFFFFFFFFFFF11
:10AF5000FFFFFFFFFFFFFFFFFFFFFFFFFFFFFFFF01
:10AF6000FFFFFFDFEF5DCE79B5B69CF38C51738E9A
:10AF70005ACB31A6000000000000000000000000D5
:10AF80000000000000000861108210821082108210
:10AF9000108210820861108210821082086108619C
:10AFA0000861086108610861086108610861086159
:10AFB0000861086108610861086108610861086149
:10AFC0000861086108610861086108610861086139
:10AFD0000861086108610861086108610861086129
:10AFE0000861086108610861086108610861086119
:10AFF0000861086108610861086108610861086109
:10B00000086108611082086110821082108210822B
:10B0100010821082108208611082086100200000F6
:10B0200000000000000000000000000000002104FB
:10B030004A696B6D841094B2AD75CE59DEFBF7BED4
:10B04000FFFFFFFFFFFFFFFFFFFFFFFFFFFFFFFF10
:10B05000FFFFFFFFFFFFFFFFFFFFFFFFFFFFFFFF00
:10B06000FFFFFFFFFFFFFFFFFFFFFFFFFFFFFFFFF0
:10B07000FFFFFFFFFFFFFFFFFFFFFFFFFFFFFFFFE0
:10B08000FFFFFFFFFFFFFFFFFFFFFFFFFFFFFFFFD0
:10B09000FFFFFFFFFFFFFFFFFFFFFFFFFFFFFFFFC0
:10B0A000FFFFFFFFFFFFFFFFFFFFFFFFFFFFFFFFB0
:10B0B000FFFFFFFFFFFFFFFFFFFFFFFFFFFFFFFFA0
:10B0C000FFFFFFFFFFFFFFFFFFFFFFFFFFFFFFFF90
:10B0D000FFFFFFFFFFFFFFFFFFFFFFFFFFFFFFFF80
:10B0E000FFFFFFFFFFFFFFFFFFFFFFFFFFFFFFFF70
:10B0F000FFFFFFFFFFFFFFFFFFFFFFFFFFFFFFFF60
:10B10000FFFFFFFFFFFFFFFFFFFFFFFFFFFFFFFF4F
:10B11000FFFFFFFFFFFFFFFFFFFFFFFFFFFFFFFF3F
:10B12000FFFFFFFFFFFFFFFFFFFFFFFFFFFFFFFF2F
:10B13000FFFFFFFFFFFFFFFFFFFFFFFFF79EDEFBAD
:10B14000C638AD558C516B4D3186000000000000B3
:10B1500000000000000000001082108208611082D0
:10B1600010821082108210820861086108610861F3
:10B170000861086108610861086108610861086187
:10B180000861086108610861086108610861086177
:10B190000861086108610861086108610861086167
:10B1A0000861086108610861086108610861086157
:10B1B0000861086108610861086108610861086147
:10B1C0000861086108610861086108610861086137
:10B1D0000861086108610861086108610861086127
:10B1E00008610861086110820861086108610861EE
:10B1F00008610861086108610861086110821082B5
:10B200001082108210821082108200200000000044
:10B21000000000000000000000005ACB8410A514BC
:10B22000BDF7DEDBEF7DFFFFFFFFFFFFFFFFFFFF4F
:10B23000FFFFFFFFFFFFFFFFFFFFFFFFFFFFFFFF1E
:10B24000FFFFFFFFFFFFFFFFFFFFFFFFFFFFFFFF0E
:10B25000FFFFFFFFFFFFFFFFFFFFFFFFFFFFFFFFFE
:10B26000FFFFFFFFFFFFFFFFFFFFFFFFFFFFFFFFEE
:10B27000FFFFFFFFFFFFFFFFFFFFFFFFFFFFFFFFDE
:10B28000FFFFFFFFFFFFFFFFFFFFFFFFFFFFFFFFCE
:10B29000FFFFFFFFFFFFFFFFFFFFFFFFFFFFFFFFBE
:10B2A000FFFFFFFFFFFFFFFFFFFFFFFFFFFFFFFFAE
:10B2B000FFFFFFFFFFFFFFFFFFFFFFFFFFFFFFFF9E
:10B2C000FFFFFFFFFFFFFFFFFFFFFFFFFFFFFFFF8E
:10B2D000FFFFFFFFFFFFFFFFFFFFFFFFFFFFFFFF7E
:10B2E000FFFFFFFFFFFFFFFFFFFFFFFFFFFFFFFF6E
:10B2F000FFFFFFFFFFFFFFFFFFFFFFFFFFFFFFFF5E
:10B30000FFFFFFFFFFFFFFFFFFFFFFFFFFFFFFFF4D
:10B31000FFFFFFFFFFFFFFDFE73CCE79AD557BCF9F
:10B320002965000000000000000000000861108294
:10B3300010821082108210820861086108611082F8
:10B3400008610861086108610861086108610861B5
:10B35000086108610861086110820861086108617C
:10B360000861086108610861086108610861086195
:10B370000861086108610861086108610861086185
:10B380000861086108610861086108610861086175
:10B390000861086108610861086108610861086165
:10B3A0000861086108610861086108610861086155
:10B3B000086108611082086108610861086108611C
:10B3C0000861086110821082108208611082108268
:10B3D0001082108210821082108208611082108206
:10B3E000108210820861086110821082108210821F
:10B3F0001082108210820000000000000000000097
:10B4000000006B4D9CF3C618E71CF7BEFFFFFFFF63
:10B41000FFFFFFFFFFFFFFFFFFFFFFFFFFFFFFFF3C
:10B42000FFFFFFFFFFFFFFFFFFFFFFFFFFFFFFFF2C
:10B43000FFFFFFFFFFFFFFFFFFFFFFFFFFFFFFFF1C
:10B44000FFFFFFFFFFFFFFFFFFFFFFFFFFFFFFFF0C
:10B45000FFFFFFFFFFFFFFFFFFFFFFFFFFFFFFFFFC
:10B46000FFFFFFFFFFFFFFFFFFFFFFFFFFFFFFFFEC
:10B47000FFFFFFFFFFFFFFFFFFFFFFFFFFFFFFFFDC
:10B48000FFFFFFFFFFFFFFFFFFFFFFFFFFFFFFFFCC
:10B49000FFFFFFFFFFFFFFFFFFFFFFFFFFFFFFFFBC
:10B4A000FFFFFFFFFFFFFFFFFFFFFFFFFFFFFFFFAC
:10B4B000FFFFFFFFFFFFFFFFFFFFFFFFFFFFFFFF9C
:10B4C000FFFFFFFFFFFFFFFFFFFFFFFFFFFFFFFF8C
:10B4D000FFFFFFFFFFFFFFFFFFFFFFFFFFFFFFFF7C
:10B4E000FFFFFFFFFFFFFFFFFFFFFFFFFFFFFFFF6C
:10B4F000FFFFFFFFE73CBDF77BEF0000000000000F
:10B500000000000010821082086110821082086121
:10B5100008610861086108610861086108610861E3
:10B5200008610861086108610861086108611082AA
:10B53000086108610861086108611082086108619A
:10B54000086108610861086110820861086108618A
:10B5500008610861086108610861086108610861A3
:10B560000861086108610861086108610861086193
:10B570000861086108610861086108610861086183
:10B580000861086108610861086108610861086173
:10B59000086108610861086108610861086110823A
:10B5A00010820841000000000000000000000000C0
:10B5B000000000000000000000000000000000008B
:10B5C000000000000000000000000000000000007B
:10B5D000000000000000000000000000000000006B
:10B5E00000000000000000005AEBAD55DEDBF79EC6
:10B5F000FFFFFFFFFFFFFFFFFFFFFFFFFFFFFFFF5B
:10B60000FFFFFFFFFFFFFFFFFFFFFFFFFFFFFFFF4A
:10B61000FFFFFFFFFFFFFFFFFFFFFFFFFFFFFFFF3A
:10B62000FFFFFFFFFFFFFFFFFFFFFFFFFFFFFFFF2A
:10B63000FFFFFFFFFFFFFFFFFFFFFFFFFFFFFFFF1A
:10B64000FFFFFFFFFFFFFFFFFFFFFFFFFFFFFFFF0A
:10B65000FFFFFFFFFFFFFFFFFFFFFFFFFFFFFFFFFA
:10B66000FFFFFFFFFFFFFFFFFFFFFFFFFFFFFFFFEA
:10B67000FFFFFFFFFFFFFFFFFFFFFFFFFFFFFFFFDA
:10B68000FFFFFFFFFFFFFFFFFFFFFFFFFFFFFFFFCA
:10B69000FFFFFFFFFFFFFFFFFFFFFFFFFFFFFFFFBA
:10B6A000FFFFFFFFFFFFFFFFFFFFFFFFFFFFFFFFAA
:10B6B000FFFFFFFFFFFFFFFFFFFFFFFFFFFFFFFF9A
:10B6C000FFFFFFFFFFFFFFFFFFFFFFFFFFFFFFFF8A
:10B6D000EF7DBDD75ACB000000000000086110824A
:10B6E0001082108208610861108208610861086197
:10B6F00008611082086108610861086108610861D9
:10B7000008610861086108610861086108610861F1
:10B7100010820861086108610861086108610861B8
:10B7200008610861086108610861086108610861D1
:10B7300008610861086108610861086108610861C1
:10B7400008610861086108610861086108610861B1
:10B7500008610861086108610861086108610861A1
:10B760000861086108610861086108610861086191
:10B770000861086108610861108208610861086158
:10B7800008410861210439C7420842284A494A4908
:10B790004A494A494A494A494A494A494A494A4911
:10B7A0004A494A494A494A494A494A494A494A4901
:10B7B0004A494A494A494A494A494A494A494A49F1
:10B7C0004A494A494A494A49420808614A49A5142E
:10B7D000E71CFFFFFFFFFFFFFFFFFFFFFFFFFFFF74
:10B7E000FFFFFFFFFFFFFFFFFFFFFFFFFFFFFFFF69
:10B7F000FFFFFFFFFFFFFFFFFFFFFFFFFFFFFFFF59
:10B80000FFFFFFFFFFFFFFFFFFFFFFFFFFFFFFFF48
:10B81000FFFFFFFFFFFFFFFFFFFFFFFFFFFFFFFF38
:10B82000FFFFFFFFFFFFFFFFFFFFFFFFFFFFFFFF28
:10B83000FFFFFFFFFFFFFFFFFFFFFFFFFFFFFFFF18
:10B84000FFFFFFFFFFFFFFFFFFFFFFFFFFFFFFFF08
:10B85000FFFFFFFFFFFFFFFFFFFFFFFFFFFFFFFFF8
:10B86000FFFFFFFFFFFFFFFFFFFFFFFFFFFFFFFFE8
:10B87000FFFFFFFFFFFFFFFFFFFFFFFFFFFFFFFFD8
:10B88000FFFFFFFFFFFFFFFFFFFFFFFFFFFFFFFFC8
:10B89000FFFFFFFFFFFFFFFFFFFFFFFFFFFFFFFFB8
:10B8A000FFFFFFFFFFFFFFFFFFFFFFFFFFFFD6BA16
:10B8B00073AE00000000000010820861086108619A
:10B8C0000861086108610861086108610861086130
:10B8D0000861086108610861086108610861086120
:10B8E0000861086108610861086108610861086110
:10B8F0000861086108610861086108610861086100
:10B9000008610861086108610861086108610861EF
:10B9100008610861086108610861086108610861DF
:10B9200008610861086108610861086108610861CF
:10B9300008610861086108610861086108610861BF
:10B9400008610861086108610861086108610861AF
:10B95000086108610861086108610861086108619F
:10B96000000031A67BCFAD55BDF7CE59CE59CE796B
:10B97000CE79CE79CE79CE79CE79CE79CE79CE798F
:10B98000CE79CE79CE79CE79CE79CE79CE79CE797F
:10B99000CE79CE79CE79CE79CE79CE79CE79CE796F
:10B9A000CE79CE79CE79CE79CE79CE79CE59C638C8
:10B9B000D69AFFDFFFFFFFFFFFFFFFFFFFFFFFFF45
:10B9C000FFFFFFFFFFFFFFFFFFFFFFFFFFFFFFFF87
:10B9D000FFFFFFFFFFFFFFFFFFFFFFFFFFFFFFFF77
:10B9E000FFFFFFFFFFFFFFFFFFFFFFFFFFFFFFFF67
:10B9F000FFFFFFFFFFFFFFFFFFFFFFFFFFFFFFFF57
:10BA0000FFFFFFFFFFFFFFFFFFFFFFFFFFFFFFFF46
:10BA1000FFFFFFFFFFFFFFFFFFFFFFFFFFFFFFFF36
:10BA2000FFFFFFFFFFFFFFFFFFFFFFFFFFFFFFFF26
:10BA3000FFFFFFFFFFFFFFFFFFFFFFFFFFFFFFFF16
:10BA4000FFFFFFFFFFFFFFFFFFFFFFFFFFFFFFFF06
:10BA5000FFFFFFFFFFFFFFFFFFFFFFFFFFFFFFFFF6
:10BA6000FFFFFFFFFFFFFFFFFFFFFFFFFFFFFFFFE6
:10BA7000FFFFFFFFFFFFFFFFFFFFFFFFFFFFFFFFD6
:10BA8000FFFFFFFFFFFFFFFFFFFFFFFFCE79630C0C
:10BA90000000000000001082086108610861086170
:10BAA000086108610861086108610861086108614E
:10BAB000086108610861086108610861086108613E
:10BAC000086108610861086108610861086108612E
:10BAD000086108610861086108610861086108611E
:10BAE000086108610861086108610861086108610E
:10BAF00008610861086108610861086108610861FE
:10BB000008610861086108610861086108610861ED
:10BB100008610861086108610861086108610861DD
:10BB200008610861086108610861086108610861CD
:10BB300008611082086108610861086108610000FD
:10BB400000008C71F79EFFFFFFFFFFFFFFFFFFFF6D
:10BB5000FFFFFFFFFFFFFFFFFFFFFFFFFFFFFFFFF5
:10BB6000FFFFFFFFFFFFFFFFFFFFFFFFFFFFFFFFE5
:10BB7000FFFFFFFFFFFFFFFFFFFFFFFFFFFFFFFFD5
:10BB8000FFFFFFFFFFFFFFFFFFFFFFFFFFFFFFFFC5
:10BB9000FFFFFFFFFFFFFFFFFFFFFFFFFFFFFFFFB5
:10BBA000FFFFFFFFFFFFFFFFFFFFFFFFFFFFFFFFA5
:10BBB000FFFFFFFFFFFFFFFFFFFFFFFFFFFFFFFF95
:10BBC000FFFFFFFFFFFFFFFFFFFFFFFFFFFFFFFF85
:10BBD000FFFFFFFFFFFFFFFFFFFFFFFFFFFFFFFF75
:10BBE000FFFFFFFFFFFFFFFFFFFFFFFFFFFFFFFF65
:10BBF000FFFFFFFFFFFFFFFFFFFFFFFFFFFFFFFF55
:10BC0000FFFFFFFFFFFFFFFFFFFFFFFFFFFFFFFF44
:10BC1000FFFFFFFFFFFFFFFFFFFFFFFFFFFFFFFF34
:10BC2000FFFFFFFFFFFFFFFFFFFFFFFFFFFFFFFF24
:10BC3000FFFFFFFFFFFFFFFFFFFFFFFFFFFFFFFF14
:10BC4000FFFFFFFFFFFFFFFFFFFFFFFFFFFFFFFF04
:10BC5000FFFFFFFFFFFFFFFFFFFFFFFFFFFFFFFFF4
:10BC6000FFFFFFFFFFFFFFFFFFFFE73C630C00004C
:10BC70000000108210820861086108610861086193
:10BC8000086108610861086108610861086108616C
:10BC9000086108610861086108610861086108615C
:10BCA000086108610861086108610861086108614C
:10BCB000086108610861086108610861086108613C
:10BCC000086108610861086108610861086108612C
:10BCD000086108610861086108610861086108611C
:10BCE000086108610861086108610861086108610C
:10BCF00008610861086108610861086108610861FC
:10BD000008610861086108610861086108610861EB
:10BD1000086108610861086108610861108200001B
:10BD200000009CD3FFFFFFFFFFFFFFFFFFFFFFFFB0
:10BD3000FFFFFFFFFFFFFFFFFFFFFFFFFFFFFFFF13
:10BD4000FFFFFFFFFFFFFFFFFFFFFFFFFFFFFFFF03
:10BD5000FFFFFFFFFFFFFFFFFFFFFFFFFFFFFFFFF3
:10BD6000FFFFFFFFFFFFFFFFFFFFFFFFFFFFFFFFE3
:10BD7000FFFFFFFFFFFFFFFFFFFFFFFFFFFFFFFFD3
:10BD8000FFFFFFFFFFFFFFFFFFFFFFFFFFFFFFFFC3
:10BD9000FFFFFFFFFFFFFFFFFFFFFFFFFFFFFFFFB3
:10BDA000FFFFFFFFFFFFFFFFFFFFFFFFFFFFFFFFA3
:10BDB000FFFFFFFFFFFFFFFFFFFFFFFFFFFFFFFF93
:10BDC000FFFFFFFFFFFFFFFFFFFFFFFFFFFFFFFF83
:10BDD000FFFFFFFFFFFFFFFFFFFFFFFFFFFFFFFF73
:10BDE000FFFFFFFFFFFFFFFFFFFFFFFFFFFFFFFF63
:10BDF000FFFFFFFFFFFFFFFFFFFFFFFFFFFFFFFF53
:10BE0000FFFFFFFFFFFFFFFFFFFFFFFFFFFFFFFF42
:10BE1000FFFFFFFFFFFFFFFFFFFFFFFFFFFFFFFF32
:10BE2000FFFFFFFFFFFFFFFFFFFFFFFFFFFFFFFF22
:10BE3000FFFFFFFFFFFFFFFFFFFFFFFFFFFFFFFF12
:10BE4000FFFFFFFFFFFFFFFFFFDFC638000000001E
:10BE500010A2086110820861086108610861086128
:10BE6000086108610861086108610861086108618A
:10BE7000086108610861086108610861086108617A
:10BE8000086108610861086108610861086108616A
:10BE9000086108610861086108610861086108615A
:10BEA000086108610861086108610861086108614A
:10BEB000086108610861086108610861086108613A
:10BEC000086108610861086108610861086108612A
:10BED000086108610861086108610861086108611A
:10BEE000086108610861086108610861086108610A
:10BEF000086108610861086108610861108200003A
:10BF000000009CD3FFFFFFFFFFFFFFFFFFFFFFFFCE
:10BF1000FFFFFFFFFFFFFFFFFFFFFFFFFFFFFFFF31
:10BF2000FFFFFFFFFFFFFFFFFFFFFFFFFFFFFFFF21
:10BF3000FFFFFFFFFFFFFFFFFFFFFFFFFFFFFFFF11
:10BF4000FFFFFFFFFFFFFFFFFFFFFFFFFFFFFFFF01
:10BF5000FFFFFFFFFFFFFFFFFFFFFFFFFFFFFFFFF1
:10BF6000FFFFFFFFFFFFFFFFFFFFFFFFFFFFFFFFE1
:10BF7000FFFFFFFFFFFFFFFFFFFFFFFFFFFFFFFFD1
:10BF8000FFFFFFFFFFFFFFFFFFFFFFFFFFFFFFFFC1
:10BF9000FFFFFFFFFFFFFFFFFFFFFFFFFFFFFFFFB1
:10BFA000FFFFFFFFFFFFFFFFFFFFFFFFFFFFFFFFA1
:10BFB000FFFFFFFFFFFFFFFFFFFFFFFFFFFFFFFF91
:10BFC000FFFFFFFFFFFFFFFFFFFFFFFFFFFFFFFF81
:10BFD000FFFFFFFFFFFFFFFFFFFFFFFFFFFFFFFF71
:10BFE000FFFFFFFFFFFFFFFFFFFFFFFFFFFFFFFF61
:10BFF000FFFFFFFFFFFFFFFFFFFFFFFFFFFFFFFF51
:10C00000FFFFFFFFFFFFFFFFFFFFFFFFFFFFFFFF40
:10C01000FFFFFFFFFFFFFFFFFFFFFFFFFFFFFFFF30
:10C02000FFFFFFFFFFFFFFFFFFDFC618000000005C
:10C030001082108208610861086108610861086166
:10C0400008610861086108610861086108610861A8
:10C050000861086108610861086108610861086198
:10C060000861086108610861086108610861086188
:10C070000861086108610861086108610861086178
:10C080000861086108610861086108610861086168
:10C090000861086108610861086108610861086158
:10C0A0000861086108610861086108610861086148
:10C0B0000861086108610861086108610861086138
:10C0C0000861086108610861086108610861086128
:10C0D0000861086108611082086110821082000006
:10C0E00000009CD3FFFFFFFFFFFFFFFFFFFFFFFFED
:10C0F000FFFFFFFFFFFFFFFFFFFFFFFFFFFFFFFF50
:10C10000FFFFFFFFFFFFFFFFFFFFFFFFFFFFFFFF3F
:10C11000FFFFFFFFFFFFFFFFFFFFFFFFFFFFFFFF2F
:10C12000FFFFFFFFFFFFFFFFFFFFFFFFFFFFFFFF1F
:10C13000FFFFFFFFFFFFFFFFFFFFFFFFFFFFFFFF0F
:10C14000FFFFFFFFFFFFFFFFFFFFFFFFFFFFFFFFFF
:10C15000FFFFFFFFFFFFFFFFFFFFFFFFFFFFFFFFEF
:10C16000FFFFFFFFFFFFFFFFFFFFFFFFFFFFFFFFDF
:10C17000FFFFFFFFFFFFFFFFFFFFFFFFFFFFFFFFCF
:10C18000FFFFFFFFFFFFFFFFFFFFFFFFFFFFFFFFBF
:10C19000FFFFFFFFFFFFFFFFFFFFFFFFFFFFFFFFAF
:10C1A000FFFFFFFFFFFFFFFFFFFFFFFFFFFFFFFF9F
:10C1B000FFFFFFFFFFFFFFFFFFFFFFFFFFFFFFFF8F
:10C1C000FFFFFFFFFFFFFFFFFFFFFFFFFFFFFFFF7F
:10C1D000FFFFFFFFFFFFFFFFFFFFFFFFFFFFFFFF6F
:10C1E000FFFFFFFFFFFFFFFFFFFFFFFFFFFFFFFF5F
:10C1F000FFFFFFFFFFFFFFFFFFFFFFFFFFFFFFFF4F
:10C20000FFFFFFFFFFFFFFFFFFFFE71C52AA000039
:10C2100000001082108208610861086108610861ED
:10C2200008610861086108610861086108610861C6
:10C2300008610861086108610861086108610861B6
:10C2400008610861086108610861086108610861A6
:10C250000861086108610861086108610861086196
:10C260000861086108610861086108610861086186
:10C270000861086108610861086108610861086176
:10C280000861086108610861086108610861086166
:10C290000861086108610861086108610861086156
:10C2A0000861086108610861086108610861086146
:10C2B000086108611082086108610861108200004D
:10C2C00000009CD3FFFFFFFFFFFFFFFFFFFFFFFF0B
:10C2D000FFFFFFFFFFFFFFFFFFFFFFFFFFFFFFFF6E
:10C2E000FFFFFFFFFFFFFFFFFFFFFFFFFFFFFFFF5E
:10C2F000FFFFFFFFFFFFFFFFFFFFFFFFFFFFFFFF4E
:10C30000FFFFFFFFFFFFFFFFFFFFFFFFFFFFFFFF3D
:10C31000FFFFFFFFFFFFFFFFFFFFFFFFFFFFFFFF2D
:10C32000FFFFFFFFFFFFFFFFFFFFFFFFFFFFFFFF1D
:10C33000FFFFFFFFFFFFFFFFFFFFFFFFFFFFFFFF0D
:10C34000FFFFFFFFFFFFFFFFFFFFFFFFFFFFFFFFFD
:10C35000FFFFFFFFFFFFFFFFFFFFFFFFFFFFFFFFED
:10C36000FFFFFFFFFFFFFFFFFFFFFFFFFFFFFFFFDD
:10C37000FFFFFFFFFFFFFFFFFFFFFFFFFFFFFFFFCD
:10C38000FFFFFFFFFFFFFFFFFFFFFFFFFFFFFFFFBD
:10C39000FFFFFFFFFFFFFFFFFFFFFFFFFFFFFFFFAD
:10C3A000FFFFFFFFFFFFFFFFFFFFFFFFFFFFFFFF9D
:10C3B000FFFFFFFFFFFFFFFFFFFFFFFFFFFFFFFF8D
:10C3C000FFFFFFFFFFFFFFFFFFFFFFFFFFFFFFFF7D
:10C3D000FFFFFFFFFFFFFFFFFFFFFFFFFFFFFFFF6D
:10C3E000FFFFFFFFFFFFFFFFFFFFFFFFBDD75AEB80
:10C3F0000000000008411082108208610861086195
:10C4000008610861086108610861086108610861E4
:10C4100008610861086108610861086108610861D4
:10C4200008610861086108610861086108610861C4
:10C4300008610861086108610861086108610861B4
:10C4400008610861086108610861086108610861A4
:10C450000861086108610861086108610861086194
:10C460000861086108610861086108610861086184
:10C470000861086108610861086108610861086174
:10C480000861086108610861086108610861086164
:10C49000086108610861086110820861108200006B
:10C4A00000009CD3FFFFFFFFFFFFFFFFFFFFFFFF29
:10C4B000FFFFFFFFFFFFFFFFFFFFFFFFFFFFFFFF8C
:10C4C000FFFFFFFFFFFFFFFFFFFFFFFFFFFFFFFF7C
:10C4D000FFFFFFFFFFFFFFFFFFFFFFFFFFFFFFFF6C
:10C4E000FFFFFFFFFFFFFFFFFFFFFFFFFFFFFFFF5C
:10C4F000FFFFFFFFFFFFFFFFFFFFFFFFFFFFFFFF4C
:10C50000FFFFFFFFFFFFFFFFFFFFFFFFFFFFFFFF3B
:10C51000FFFFFFFFFFFFFFFFFFFFFFFFFFFFFFFF2B
:10C52000FFFFFFFFFFFFFFFFFFFFFFFFFFFFFFFF1B
:10C53000FFFFFFFFFFFFFFFFFFFFFFFFFFFFFFFF0B
:10C54000FFFFFFFFFFFFFFFFFFFFFFFFFFFFFFFFFB
:10C55000FFFFFFFFFFFFFFFFFFFFFFFFFFFFFFFFEB
:10C56000FFFFFFFFFFFFFFFFFFFFFFFFFFFFFFFFDB
:10C57000FFFFFFFFFFFFFFFFFFFFFFFFFFFFFFFFCB
:10C58000FFFFFFFFFFFFFFFFFFFFFFFFFFFFFFFFBB
:10C59000FFFFFFFFFFFFFFFFFFFFFFFFFFFFFFFFAB
:10C5A000FFFFFFFFFFFFFFFFFFFFFFFFFFFFFFFF9B
:10C5B000FFFFFFFFFFFFFFFFFFFFFFFFFFFFFFFF8B
:10C5C000FFFFFFFFFFFFFFFFFFFFFFFFFFFFBDF7C5
:10C5D000632C0000000000000841108208611082F6
:10C5E0000861086108610861086108610861086103
:10C5F00008610861086108610861086108610861F3
:10C6000008610861086108610861086108610861E2
:10C6100008610861086108610861086108610861D2
:10C6200008610861086108610861086108610861C2
:10C6300008610861086108610861086108610861B2
:10C6400008610861086108610861086108610861A2
:10C650000861086108610861086108610861086192
:10C660000861086108610861086108610861086182
:10C670000861086108611082086108611082000089
:10C6800000009CD3FFFFFFFFFFFFFFFFFFFFFFFF47
:10C69000FFFFFFFFFFFFFFFFFFFFFFFFFFFFFFFFAA
:10C6A000FFFFFFFFFFFFFFFFFFFFFFFFFFFFFFFF9A
:10C6B000FFFFFFFFFFFFFFFFFFFFFFFFFFFFFFFF8A
:10C6C000FFFFFFFFFFFFFFFFFFFFFFFFFFFFFFFF7A
:10C6D000FFFFFFFFFFFFFFFFFFFFFFFFFFFFFFFF6A
:10C6E000FFFFFFFFFFFFFFFFFFFFFFFFFFFFFFFF5A
:10C6F000FFFFFFFFFFFFFFFFFFFFFFFFFFFFFFFF4A
:10C70000FFFFFFFFFFFFFFFFFFFFFFFFFFFFFFFF39
:10C71000FFFFFFFFFFFFFFFFFFFFFFFFFFFFFFFF29
:10C72000FFFFFFFFFFFFFFFFFFFFFFFFFFFFFFFF19
:10C73000FFFFFFFFFFFFFFFFFFFFFFFFFFFFFFFF09
:10C74000FFFFFFFFFFFFFFFFFFFFFFFFFFFFFFFFF9
:10C75000FFFFFFFFFFFFFFFFFFFFFFFFFFFFFFFFE9
:10C76000FFFFFFFFFFFFFFFFFFFFFFFFFFFFFFFFD9
:10C77000FFFFFFFFFFFFFFFFFFFFFFFFFFFFFFFFC9
:10C78000FFFFFFFFFFFFFFFFFFFFFFFFFFFFFFFFB9
:10C79000FFFFFFFFFFFFFFFFFFFFFFFFFFFFFFFFA9
:10C7A000FFFFFFFFFFFFFFFFFFFFFFFFFFFFFFFF99
:10C7B000E71C9CD33186000000000000108210822C
:10C7C00008610861108208610861086108610861F8
:10C7D00008610861086108611082086108610861E8
:10C7E0000861086108610861086108610861086101
:10C7F00008610861086108610861086108610861F1
:10C8000010820861086108610861086108610861B7
:10C8100008610861086108610861086108610861D0
:10C8200008610861086108610861086108610861C0
:10C8300008610861086108610861086108610861B0
:10C8400008610861086108610861086108610861A0
:10C8500008610861086108610861086110820000D0
:10C8600000007BCFDEFBF7BEFFDFFFFFFFFFFFFF18
:10C87000FFFFFFFFFFFFFFFFFFFFFFFFFFFFFFFFC8
:10C88000FFFFFFFFFFFFFFFFFFFFFFFFFFFFFFFFB8
:10C89000FFFFFFFFFFFFFFFFFFFFFFFFFFFFFFFFA8
:10C8A000FFFFFFFFFFFFFFFFFFFFFFDFFFFFFFFFB8
:10C8B000FFFFFFFFFFFFFFFFFFFFFFFFFFFFFFFF88
:10C8C000FFFFFFFFFFFFFFFFFFFFFFFFFFFFFFFF78
:10C8D000FFFFFFFFFFFFFFFFFFFFFFFFFFFFFFFF68
:10C8E000FFFFFFFFFFFFFFFFFFFFFFFFFFFFFFFF58
:10C8F000FFFFFFFFFFFFFFFFFFFFFFFFFFFFFFFF48
:10C90000FFFFFFFFFFFFFFFFFFFFFFFFFFFFFFFF37
:10C91000FFFFFFFFFFFFFFFFFFFFFFFFFFFFFFFF27
:10C92000FFFFFFFFFFFFFFFFFFFFFFFFFFFFFFFF17
:10C93000FFFFFFFFFFFFFFFFFFFFFFFFFFFFFFFF07
:10C94000FFFFFFFFFFFFFFFFFFFFFFFFFFFFFFFFF7
:10C95000FFFFFFFFFFFFFFFFFFFFFFFFFFFFFFFFE7
:10C96000FFFFFFFFFFFFFFFFFFFFFFFFFFFFFFFFD7
:10C97000FFFFFFFFFFFFFFFFFFFFFFFFFFFFFFFFC7
:10C98000FFFFFFFFFFFFFFFFFFFFFFFFFFFFFFFFB7
:10C99000FFFFFFDFDEDBA5144A49000000000000B6
:10C9A000000010821082108208610861086108612D
:10C9B00008610861108208610861108208611082B4
:10C9C00008610861108208610861108208610861CD
:10C9D00008610861086108610861086108611082E6
:10C9E00008610861086108610861086108610861FF
:10C9F00008610861086108610861086108610861EF
:10CA000008610861086108610861086108610861DE
:10CA100008610861086108610861086108610861CE
:10CA200008610861086108610861086108610861BE
:10CA30000861086108611082086108610861086185
:10CA4000000029655ACB73AE8C5194B29CD39CF3F1
:10CA50009CF39CD39CF39CF39CD39CF39CD39CF3BE
:10CA60009CF39CF39CF39CD39CF39CF39CD39CF38E
:10CA70009CF39CF39CD39CF39CF39CF39CD39CF37E
:10CA80009CD394B28C718C519CD3CE59F79EFFFFEE
:10CA9000FFFFFFFFFFFFFFFFFFFFFFFFFFFFFFFFA6
:10CAA000FFFFFFFFFFFFFFFFFFFFFFFFFFFFFFFF96
:10CAB000FFFFFFFFFFFFFFFFFFFFFFFFFFFFFFFF86
:10CAC000FFFFFFFFFFFFFFFFFFFFFFFFFFFFFFFF76
:10CAD000FFFFFFFFFFFFFFFFFFFFFFFFFFFFFFFF66
:10CAE000FFFFFFFFFFFFFFFFFFFFFFFFFFFFFFFF56
:10CAF000FFFFFFFFFFFFFFFFFFFFFFFFFFFFFFFF46
:10CB0000FFFFFFFFFFFFFFFFFFFFFFFFFFFFFFFF35
:10CB1000FFFFFFFFFFFFFFFFFFFFFFFFFFFFFFFF25
:10CB2000FFFFFFFFFFFFFFFFFFFFFFFFFFFFFFFF15
:10CB3000FFFFFFFFFFFFFFFFFFFFFFFFFFFFFFFF05
:10CB4000FFFFFFFFFFFFFFFFFFFFFFFFFFFFFFFFF5
:10CB5000FFFFFFFFFFFFFFFFFFFFFFFFFFFFFFFFE5
:10CB6000FFFFFFFFFFFFFFFFFFFFFFFFFFFFFFFFD5
:10CB7000FFFFFFFFFFFFF7BEDEFBC61894924A4996
:10CB80000000000000000000000008611082108218
:10CB900010821082086110820861086108610861D2
:10CBA000086108610861086108610861086108613D
:10CBB0000861108208610861086108610861086104
:10CBC00008610861086108611082086108610861F4
:10CBD000086108610861086108610861086108610D
:10CBE00008610861086108610861086108610861FD
:10CBF00008610861086108610861086108610861ED
